:020000040800F2
:10000000F0F400205D020008BF520008AD47000870
:10001000BD520008D70A0008BF63000800000000B6
:100020000000000000000000000000009D0100082A
:10003000B91C000800000000F9010008CF580008B2
:1000400077020008770200087702000877020008AC
:10005000770200087702000877020008770200089C
:10006000770200087702000877020008770200088C
:10007000770200087702000877020008770200087C
:10008000770200087702000877020008770200086C
:10009000770200087702000877020008770200085C
:1000A000770200087702000877020008770200084C
:1000B0004D5B0008595B0008655B0008770200088B
:1000C000770200087702000877020008770200082C
:1000D00077020008D960000877020008E560000890
:1000E000770200087702000877020008770200080C
:1000F00077020008770200087702000877020008FC
:1001000077020008770200087702000877020008EB
:1001100077020008770200087702000877020008DB
:1001200077020008770200087702000877020008CB
:10013000770200080D1D000877020008770200080A
:1001400077020008770200087702000877020008AB
:10015000770200087702000877020008770200089B
:10016000770200087702000877020008770200088B
:1001700077020008770200087702000800000000FC
:100180007702000877020008DFF80CD000F066FC68
:100190000048004781A90008F0F400202C4B1968A2
:1001A0000868B0E8F04F80F30988BFF36F8F4FF015
:1001B000000080F3118870470000000008480068C4
:1001C000006880F308884FF0000080F3148862B65E
:1001D00061B6BFF34F8FBFF36F8F00DF00BF00BF6B
:1001E00008ED00E0DFF80C00016841F470010160E7
:1001F000704700BF88ED00E0EFF30980BFF36F8F19
:10020000134B1A681EF0100F08BF20ED108A20E96A
:10021000F04F106009B44FF0500080F31188BFF325
:100220004F8FBFF36F8F10F0EBFC4FF0000080F3A7
:10023000118809BC19680868B0E8F04F1EF0100F6B
:1002400008BFB0EC108A80F30988BFF36F8F704746
:1002500040000020EFF3058070470000064880470B
:1002600006480047FEE7FEE7FEE7FEE7FEE7FEE79B
:10027000FEE7FEE7FEE7FEE7615900088901000896
:100280002DE9F05F0546002092469B4688460646CB
:10029000814640241BE0284641464746224600F05E
:1002A000BEFA53465A46C01A914110D31146184619
:1002B000224600F0A5FA2D1A67EB01084F462246A8
:1002C0000120002100F09CFA17EB00094E41201E8E
:1002D000A4F10104DFDC484631462A464346BDE826
:1002E000F09F40EA01039B0703D009E008C9121FF1
:1002F00008C0042AFAD203E011F8013B00F8013BE0
:10030000521EF9D27047D2B201E000F8012B491E0B
:10031000FBD270470022F6E710B513460A460446A2
:100320001946FFF7F0FF204610BD30B50446002007
:10033000034600E05B1C934203D2E05CCD5C401BB3
:10034000F8D030BD2DE9FE4F804681EA0300C00F92
:100350000C46009021F0004123F00045B8EB02006C
:10036000A94105D24046214690461C460B4602460E
:1003700023F00040104347D0270DC7F30A00C3F312
:100380000A510290401A019040286BDAC3F313001F
:1003900040F4801B0098924620B10023D2EB030A60
:1003A00063EB0B0B01985946C0F14002504600F038
:1003B00027FA06460D4650465946019A00F03FFA84
:1003C00010EB08006141002487EA115284EAE773C8
:1003D0001A4340D0009A62B3019A012A4FEA0752A9
:1003E00015DC001B61EB02014FF0004202EA0752EC
:1003F000CDE90042001C41F5801132462B4600F049
:1004000076FA03B0BDE8F08F40462146F9E7001BBD
:1004100061EB0201001C41F5801300185B412018BC
:10042000A2F5001747EB030140EAD570B6196D41FC
:1004300011E06D084FEA360645EAC0754FEA0752EB
:10044000001B61EB0201001C41F5801149084FEAD5
:1004500030000019514132462B4603B0BDE8F04F41
:1004600000F036BA0098012240000023D0EB0202CF
:1004700063EBE073009821464FEAE074B8EB0000AC
:1004800061EB0401E9E783F000435BE781F00041A1
:1004900058E72DE9FE4F81EA030404F0004421F0FF
:1004A000004100944FF0000B23F0004350EA010498
:1004B0005ED052EA03045BD0C3F30A54C1F30A5579
:1004C0002C44A4F2F3340194A0FB0254C1F31301B1
:1004D00041F48011C3F3130343F4801301FB02447E
:1004E00000FB034E840A970A44EA815447EA835783
:1004F000A4FB076802958D0A05FB07854FEA932C3C
:1005000004FB0C542705029D4FEA065847EA1637AC
:10051000B5EB08056EEB070C870E920E47EA8117C4
:1005200042EA8312A7FB0201B6EB0B0164EB000465
:100530002B0D43EA0C335E1844EB1C50DA4651464F
:10054000E7FB0201C5F313044FEA0B3343EA1453EC
:100550004FEA0432019C43EA0603A4F10C0402941E
:10056000009CCDE900B400F0C2F903B0BDE8F08F03
:1005700000200146F9E72DE9F04D81EA030404F07B
:10058000004B21F0004514464FF0000A23F00041D3
:1005900050EA050220D054EA01021DD0C5F30A57E3
:1005A0000246C5F31303C1F31300C1F30A5640F426
:1005B000801543F48013A7EB0608101BD64608F2FB
:1005C000FD3873EB050002D308F1010801E0921831
:1005D0005B41B8F1000F03DA00200146BDE8F08D61
:1005E00000204FF48011064684460EE0171B73EB83
:1005F000050705D3121B63EB050306434CEA010C08
:1006000049084FEA300092185B4150EA0107EDD1EA
:1006100052EA030012D082EA040083EA050108438B
:1006200005D0101BAB4106D20122002306E00022B8
:100630004FF0004302E06FF0010253101AEB060086
:100640004CEB085110EB0A0041EB0B01BDE8F04DFB
:1006500000F03EB90EB5C10F80EAE0700844CA0749
:10066000002140F233438DE80E000A460B4600F0AD
:100670003EF903B000BD0EB540F2334102910021B6
:10068000CDE900110A460B4600F031F903B000BD78
:100690003EB5CA17CB0F002450405140C0186141ED
:1006A000DA0740F233430094CDE901232246234682
:1006B00000F01DF903B030BD70B5C1F30A5201F06E
:1006C00000450024C1F3130140F2FF3341F48011CF
:1006D0009A4201DA002070BD40F233439A42A2F2FE
:1006E000334203DC524200F09AF800E090402C4381
:1006F000F1D0404270BD70B5C1F30A5201F000451F
:100700000024C1F3130140F2FF3341F480119A42F7
:1007100002DA0020014670BD40F233439A42A2F251
:10072000334203DC524200F07AF801E000F068F84E
:100730002C43F0D00023D0EB030063EB010170BD2C
:1007400000F0004230F000400AD0C10D01F56071A8
:10075000C0F3160042EA0151C20840071143704736
:10076000002001467047000030B5041E71F10004FE
:1007700004DB4FF00044404264EB0101141E73F1AE
:10078000000405DB1C464FF00043524263EB0403B8
:100790008B4208BF824230BD30B5041E71F10004A7
:1007A00004DB4FF00044404264EB0101141E73F17E
:1007B000000405DB1C464FF00043524263EB040388
:1007C000994208BF904230BD01F0004330B421F09F
:1007D000004150EA010206D00A0DA2F56072C1F391
:1007E0001301002A02DC30BC00207047440F44EAA9
:1007F000C104C100E01830BC00EBC25000F031B8B9
:10080000202A04DB203A00FA02F1002070479140D0
:10081000C2F1200320FA03F3194390407047202AC5
:1008200004DB203A21FA02F00021704721FA02F39A
:10083000D040C2F120029140084319467047202A57
:1008400006DBCB17203A41FA02F043EAE07306E0F8
:1008500041FA02F3D040C2F1200291400843194608
:1008600070470029A8BF7047401C490008BF20F00E
:100870000100704710B4B0FA80FC00FA0CF050EAA6
:10088000010404BF10BC704749B1CCF1200421FA27
:1008900004F411FA0CF118BF012121430843A3EB22
:1008A0000C01CB1D4FEA00614FEA102042BF00202F
:1008B00010BC704700EBC35010440029A4BF10BC0B
:1008C0007047401C490008BF20F0010010BC704771
:1008D00010B5141E73F1000408DA401C41F1000148
:1008E00092185B411A4301D120F0010010BD2DE99F
:1008F000F04D92469B4611B1B1FA81F202E0B0FA96
:1009000080F220329046FFF77BFF04460F4640EA14
:100910000A0041EA0B0153465A46084313D01146D8
:1009200053EA010019D0C8F140025046FFF777FFA3
:1009300005460E46504659464246FFF761FF0843BA
:1009400005D0012004E020463946BDE8F08D0020A6
:10095000054346EAE0762C4337430A986305E40AE8
:10096000A0EB08000022FD0A44EA47540A3002D5F1
:1009700000200146E9E7010510196941DDE9084554
:1009800000196941BDE8F04DA2E770B521F00043C0
:1009900003430CD0C1F30A550024D5EB040564EBE6
:1009A0000403D617AD1AB34102DB0020014670BD27
:1009B000201841EB025170BD2DE9F04D00231A467D
:1009C0001B1A8A4103DB00200146BDE8F08DC1F30C
:1009D0000A52C1F3130141F480154FF0000BD10707
:1009E00002D100186D41521E0027044640F2FF114B
:1009F000384601EB620A3E468046024600204FF42C
:100A00008011FFF70CFFC2197141BB1846EB0100C2
:100A1000B4EB030C75EB000C04D3E41A65EB000592
:100A200017460E46241908F101006D41804634280E
:100A3000E3DDF91946EB0600091BA84103D24FF08C
:100A4000FF32134601E0002213461BEB070046EB82
:100A50000A51BDE8F04DFFF73BBF0000064C074DC3
:100A600006E0E06840F0010394E80700984710347E
:100A7000AC42F6D3FFF78CFB0021010820210108CE
:100A800070B58C1810F8015B15F0070301D110F850
:100A9000013B2A1106D110F8012B03E010F8016B7D
:100AA00001F8016B5B1EF9D12B0705D40023521E00
:100AB0000DD401F8013BFAE710F8013BCB1A921C68
:100AC00003E013F8015B01F8015B521EF9D5A14266
:100AD000D8D3002070BDFEE770B5094DFF22134644
:100AE00005F5807606E000BF10F8014B54402A5D02
:100AF0005A40335D491EC9B2F6D243EA022070BDA6
:100B0000481D01082DE9F04F04462DED108BB0EE85
:100B100043AAF0EE63AAB0EE40CAF0EE60CA83B01A
:100B2000B0EE45EAF0EE65EAB0EE449AF0EE649A73
:100B3000B0EE42DAF0EE62DAB0EE41BAF0EE61BA4F
:100B40009FEDFEFB53EC1A2B51EC1C0BFFF79BFCAB
:100B50000746009153EC192B51EC1B0BFFF793FC4C
:100B6000894649EC100B804653EC102B51EC100BCE
:100B7000FFF78FFC41EC180B009941EC107B53EC14
:100B8000102B51EC100BFFF784FC53EC182BFFF7E4
:100B9000D9FB41EC100B06F093FAB0EE408AF0EE70
:100BA000608A53EC1A2B51EC1C0BFFF7DDFD0DD1C5
:100BB00053EC192B51EC1B0BFFF7D6FD06D153EC70
:100BC0001E2B51EC1D0BFFF7CFFD7DD053EC1E2BE0
:100BD00051EC1D0BFFF7B6FB8A464AEC100B05469D
:100BE00053EC182B51EC100BFFF7BEFD6DD24AEC05
:100BF000105B51EC180B53EC102BFFF7BCFC9FED76
:100C0000D11B53EC112BFFF79DFB41EC100B51EC6A
:100C10001D0B8DED000B53EC102BFFF73AFC9DEDF7
:100C2000000B41EC1D0B53EC102B51EC1E0BFFF78E
:100C300030FC41EC1E0B53EC1A2B51EC1C0BFFF754
:100C400093FD71D153EC192B51EC1B0BFFF78CFD6D
:100C50006AD053EC1F2B51EC180BFFF71AFC53EC26
:100C6000182BFFF716FC41EC1C0B53EC182B51EC26
:100C7000180BFFF70EFC41EC180B53EC1E2B51EC3C
:100C80001E0BFFF706FC41EC1E0B53EC1D2B51EC29
:100C90001D0BFFF7FEFB0E4646EC100B054653EC12
:100CA0001E2B51EC100BFFF7EEFB53EC182BFFF74C
:100CB00049FB41EC180B53EC1B2B51EC190BFFF7C4
:100CC000E2FB53EC182B01E0FCE0E8E0FFF7E1FB6E
:100CD00053EC1C2BFFF74FFC53EC1B2BFFF732FBA5
:100CE00041EC180B53EC1B2BFFF7CDFB41EC100B29
:100CF00053EC102BFFF7CDFB41EC190B53EC1A2BE7
:100D000051EC1A0BFFF7C2FB41EC100B53EC102B0C
:100D1000FFF7BFFB41EC100B46EC115B53EC102BC3
:100D200051EC110B94E1FFE753EC1A2B51EC1C0B27
:100D3000FFF71AFD06D053EC192B51EC1B0BFFF7F4
:100D400013FD7CD053EC1A2B51EC1C0BFFF70CFD60
:100D500076D053EC192B51EC1B0BFFF705FDF7D0A8
:100D600053EC1A2B51EC1C0BFFF790FB0F4605467A
:100D700047EC1A0B53EC1B2B51EC190BFFF783FBC1
:100D800053EC1A2BFFF7F7FB41EC1A0B53EC1A2B21
:100D90009FED6E0B51EC100BFFF7EDFB41EC190BC7
:100DA00053EC1F2B51EC180BFFF773FB53EC182B74
:100DB000FFF76FFB41EC1F0B53EC182B51EC180B9A
:100DC000FFF767FB41EC180B53EC1E2B51EC1E0B8D
:100DD000FFF75FFB41EC1E0B53EC1D2B51EC1D0B81
:100DE000FFF757FB884648EC100B064653EC1E2BCA
:100DF00051EC100BFFF747FB53EC182BFFF7A2FA4F
:100E000041EC100B47EC115B53EC102B51EC110B28
:100E1000FFF73FFB53EC1F2BFFF7ADFB53EC1C2BF5
:100E2000FFF790FA41EC180B51EC1C0B53EC182B0C
:100E3000FFF72CFB0F46054647EC100B01E0F1E2F3
:100E40007EE253EC1A2B51EC100BFFF722FB53EC14
:100E50001B2BFFF777FA41EC1A0B53EC1B2BFFF718
:100E600012FB41EC100B53EC102BFFF712FB47EC7D
:100E7000105B41EC1B0B53EC102B51EC100BFFF7EC
:100E800008FB41EC100B48EC116B53EC102B51ECB0
:100E9000110BA7E1FFF756FAC4E906014BE353EC47
:100EA0001E2B51EC1D0BFFF7EEFA8B4606464BEC62
:100EB000100B05F0D1FA53EC182B51EC100BFFF787
:100EC0006BFC05D2012003B0BDEC108BBDE8F08FA8
:100ED0004AEC105B53EC182B51EC100BFFF744FC61
:100EE0000AD04BEC106B05F0B7FA53EC182B51EC11
:100EF000100BFFF739FC7DD14AEC105B53EC182B3B
:100F000051EC100BFFF730FC75D14AEC105B51EC43
:100F1000180B53EC102BFFF72EFB9FED0A1B53EC25
:100F2000112BFFF70FFA41EC100B51EC1D0B8DED5F
:100F3000000B53EC102BFFF7ACFA0BE000000000A5
:100F4000000000407B14AE47E17A843F00000000BF
:100F50000000F0BF9DED000B41EC1D0B53EC102B7E
:100F600051EC1E0BFFF795FA41EC1E0B42E200BF5D
:100F700053EC192B51EC1B0BFFF7F6FB7DD053EC18
:100F80001F2B51EC180BFFF784FA53EC182BFFF7CB
:100F900080FA41EC1C0B53EC182B51EC180BFFF7AB
:100FA00078FA41EC180B53EC1E2B51EC1E0BFFF79B
:100FB00070FA41EC1E0B53EC1D2B51EC1D0BFFF78F
:100FC00068FA0E4646EC100B054653EC1E2B51EC0E
:100FD000100BFFF758FA53EC182BFFF7B3F941EC5D
:100FE000180B53EC1B2B51EC190BFFF74CFA53EC7D
:100FF000182B01E0EAE146E1FFF74BFA53EC1C2B1A
:10100000FFF7B9FA53EC1B2BFFF79CF941EC180BD7
:1010100053EC1B2BFFF737FA41EC100B53EC102B62
:10102000FFF737FA41EC190B53EC1A2B51EC1A0B62
:10103000FFF72CFA41EC100B53EC102BFFF729FAB9
:1010400041EC110B46EC105B53EC112B51EC100BE7
:10105000FFF719FA53EC192BFFF715FA41EC100BB7
:1010600006F02EF8B0EE409AF0EE609A53EC192B91
:1010700051EC1A0BFFF707FA00E0C3E1C4E90001E5
:1010800084ED028B53EC192B51EC1A0BFFF75AF934
:10109000C4E9040184ED068B4DE200BF53EC1A2B2A
:1010A00051EC1C0BFFF760FBF6D053EC192B51EC05
:1010B0001B0BFFF759FBEFD053EC1A2B51EC1C0B19
:1010C000FFF7E4F90E46054646EC1A0B53EC1B2BD2
:1010D00051EC190BFFF7D7F953EC1A2BFFF74BFA2A
:1010E00041EC1A0B53EC1A2B1FED680B51EC100B53
:1010F000FFF741FA41EC190B53EC1F2B51EC180B85
:10110000FFF7C7F953EC182BFFF7C3F941EC1F0B9E
:1011100053EC182B51EC180BFFF7BBF941EC180BF3
:1011200053EC1E2B51EC1E0BFFF7B3F941EC1E0BD9
:1011300053EC1D2B51EC1D0BFFF7ABF9884648EC27
:10114000100B074653EC1E2B51EC100BFFF79BF9CD
:1011500053EC182BFFF7F6F841EC100B46EC115B43
:1011600053EC102B51EC110BFFF793F953EC1F2BA1
:10117000FFF701FA53EC1C2BFFF7E4F841EC180BD6
:1011800051EC1C0B53EC182BFFF780F90E4646EC84
:10119000100B054653EC1A2B51EC100BFFF779F9A5
:1011A00053EC1B2BFFF7CEF841EC1A0B53EC1B2B27
:1011B000FFF769F941EC100B53EC102BFFF769F9BD
:1011C00046EC105B41EC1B0B53EC102B51EC100B5D
:1011D000FFF75FF941EC110B48EC107B53EC112B3E
:1011E00051EC100BFFF74FF953EC1B2BFFF74BF9AA
:1011F00041EC1B0B53EC192B51EC190BFFF749F980
:101200009FEDCE1B53EC112BFFF79CF841EC100B1C
:1012100051EC1B0B53EC102BFFF7ADF941EC100B0D
:1012200005F04EFFB0EE40BAF0EE60BA53EC1B2B67
:1012300051EC180BFFF727F941EC100B53EC182B6E
:1012400084ED000BFFF71FF953EC192BFFF721F981
:1012500053EC1A2BFFF776F8C4E9020153EC1B2B71
:1012600051EC180BFFF76EF841EC100B53EC182BF8
:1012700084ED040BFFF707F953EC192BFFF709F97D
:1012800053EC1A2B06E64BEC106B05F0E5F853EC2B
:10129000182B51EC100BFFF767FA51D153EC1A2BB6
:1012A00051EC1C0BFFF760FA28D153EC192B51ECD1
:1012B0001B0BFFF759FA21D053EC1E2B51EC1D0BE1
:1012C000FFF76AFA53EC192B51EC1B0B03D2FFF713
:1012D00063FA03D209E0FFF75FFA06D284ED00ABB0
:1012E00053EC1D2B51EC1B0B6BE084ED00AB53EC6E
:1012F0001D2B51EC1B0BFFF7C6F864E053EC1A2BC7
:1013000051EC1C0BFFF730FA2CD053EC192B51EC9D
:101310001B0BFFF729FA25D153EC1E2B51EC1D0BAB
:10132000FFF73AFA53EC1A2B51EC1C0B09D2FFF7DA
:1013300033FA09D20FE000BFC4E9000184ED029B3B
:10134000F9E0FFF729FA06D253EC1D2B51EC1C0BE8
:10135000FEF7F8FFF0E753EC1D2B51EC1C0BFFF7E9
:1013600092F8E9E753EC1A2B51EC1C0BFFF7FCF950
:101370002BD053EC192B51EC1B0BFFF7F5F924D0B4
:10138000009953EC1D2B41EC107B51EC100BFFF737
:1013900080F853EC182BFFF7EEF853EC1C2BFEF7FC
:1013A000D1FF49EC108BC4E9000153EC1D2B51EC2B
:1013B000100BFFF76EF853EC182BFFF7DCF853EC2B
:1013C0001B2BFEF7BFFFC4E90201B4E04AEC105B3F
:1013D00053EC182B51EC100BFFF7DEF97DD24BECE0
:1013E000106B05F039F853EC182B51EC100BFFF78C
:1013F000BBF972D253EC1A2B51EC1C0BFFF7B4F96A
:101400003FF4B6AD53EC1A2B51EC1C0BFFF7ACF9C3
:101410003FF444AE53EC192B51EC1B0BFFF7A4F92E
:101420007FF43CAE53EC1F2B51EC180BFFF731F857
:1014300053EC182BFFF72DF841EC1B0B53EC182B3A
:1014400051EC180BFFF725F841EC180B53EC1E2B51
:1014500051EC1E0BFFF71DF841EC1E0B53EC1D2B3E
:1014600051EC1D0BFFF715F80E4646EC100B054628
:1014700053EC1E2B51EC100BFFF705F853EC182B17
:10148000FEF760FF41EC180B53EC1A2B51EC1C0BD0
:10149000FEF7FCFF53EC182BFEF7FBFF53EC1B2B66
:1014A000FFF769F853EC1C2BFEF74CFF41EC180BCF
:1014B00053EC192B51EC190BFEF7E5FF41EC100B27
:1014C00053EC102BFEF7E5FF41EC1A0B53EC182BF5
:1014D00051EC1C0BFEF7DAFF00E02CE041EC100BA6
:1014E00053EC102BFEF7D5FF41EC110B46EC105BD3
:1014F00053EC112B51EC100BFEF7C5FF53EC1A2BDC
:10150000FEF7C1FF41EC100B05F0DAFDB0EE40AA8A
:10151000F0EE60AA84ED008B53EC1A2B51EC190B02
:10152000FEF7B1FFC4E9020184ED048B53EC1A2BE2
:1015300051EC190BAEE40020C5E4000000000000EF
:101540000000F03F70B5244C06460025A07830B16D
:1015500001280CD0022814D0032817D03AE000202C
:1015600006F0DAFF002006F097FF0120A0700021AE
:101570000F2006F048FF1949A062084028D0022039
:10158000A070208D400417D50320A0704FF4804236
:1015900000210F2007F063F80021102006F033FF30
:1015A000C0F3090100220E48216306F060FF0C48D9
:1015B000C178EF2906D00CE00A4A00210F2007F07D
:1015C0004EF806E04178B14203D10421A1700079C0
:1015D00070BDA570002070BD7001002000D02724D0
:1015E00090F00020009027242DE9F05F7B4C80468E
:1015F000DFF8F4916078DFF8E8B1DFF8E8A1A9F14D
:10160000480504F16306002790B1012818D002288C
:1016100020D0032823D004283BD0052864D00628F6
:101620006CD007287BD008286FD009286ED0D3E073
:10163000002006F071FF002006F02EFF01206070F0
:1016400000210F2006F0DFFEA06210EA0A007DD024
:1016500002206070208D400479D5032060704FF423
:10166000804200210F2006F0FAFF0021102006F032
:10167000CAFEC0F309015C4800224838216306F025
:10168000F6FEE878AB2842D1697841453FD1042085
:1016900060700020295C3154401C1E28FAD307F0EA
:1016A0004BFF0246C9F804004C4800236B3007F09A
:1016B0002CFF94F82400B070BC204849F070002240
:1016C00063311E2006F0F9FF00211E2007F006F806
:1016D000002006F009FF41F2883006F01DFF0220CD
:1016E00006F04CFF0520607000210F2006F08BFEF5
:1016F000A06210EA0A0067D006206070606A411C90
:1017000007D0401C606205E009E025E04FE067700B
:1017100062E06762208D400458D5072060704FF466
:10172000814200210F2006F09AFF0021102006F0D0
:101730006AFE00F07F012C4800224838216306F041
:1017400096FEE878CD28E2D1697801E03CE03DE002
:101750004145DCD1082060700020295C3154401CD8
:101760001E28FAD3DE20F07007F0F9FE4D46C9F8C6
:10177000080007F0E1FE6861184800236F30AA688E
:1017800007F0C3FE154800237B306A6907F0BDFEF1
:101790001249002263311E2006F08FFF00211E2017
:1017A00006F09CFF002006F0E9FE09206070002191
:1017B0000F2006F028FE00060ED5802200210F2003
:1017C00006F04DFF67700120BDE8F09F5A460021EA
:1017D0000F2006F044FF9AE70020F5E77001002093
:1017E0000090272400D02724D8F000202DE9F04FC6
:1017F000C64CC84DDFF8189341F2883A2DED0A8B9C
:1018000087B04FF4814B002604F16308A5F1480727
:10181000227882B1012A31D0022A39D0032A43D05A
:10182000042A63D0052A7CD0062A7BD0072A7AD0E6
:10183000082A79D052E000234246D6545B1C1E2B66
:10184000FBD31070517094F824009070AB20AF4916
:1018500088F80300002263311E2006F02EFF0021CD
:101860001E2006F03BFF002006F03EFE504606F02C
:1018700053FE022006F082FE0120207000210F207E
:1018800006F0C1FDA06210EA090028D002202070F5
:10189000606A411C02D0401C606200E06662208DDC
:1018A000400415D5032020705A4600210F2006F071
:1018B000D6FE0021102006F0A6FD00F07F0195481D
:1018C00000224838216306F0D2FDF878BC280BD0FE
:1018D000914A00210F2006F0C2FE2670002007B0BA
:1018E000BDEC0A8BBDE8F08F0420207000203A5C2C
:1018F00008F80020401C1E28F9D307F030FE2860AD
:1019000007F01AFEE860002308F104002A6807F0D7
:10191000FCFD7E4800237330EA6807F0F6FDCD2118
:1019200003E01DE026E031E046E088F8031094F87B
:101930002400764988F80200002263311E2006F058
:10194000BCFE00211E2006F0C9FE002006F0CCFDE2
:10195000504606F0E1FD022006F010FE0520207042
:1019600000210F2006F04FFDA06210EA0900B6D05A
:1019700006202070606A411C02D0401C606200E0BA
:101980006662208D4004A3D5072020705A460021AE
:101990000F2006F064FE0021102006F034FD00F058
:1019A0007F015C4800224838216306F060FDF8782A
:1019B000DE288DD108202070002140467A5C4254F8
:1019C000491C1E29FAD36946381D07F091FD51487C
:1019D00001A9403807F08CFD4E4802A93C3807F0B9
:1019E00087FD4C4803A9383807F082FD494805A90E
:1019F000303807F07DFD00982860019868600298F3
:101A0000A8600398E86007F0AAFD2861059969615C
:101A100088460746E96828688946081AFEF72BFEBB
:101A200041EC1B0BA86841468046081AFEF723FECE
:101A300041EC1A0BA7EB0900FEF71DFE41EC180B59
:101A40006968A8EB0100FEF716FE41EC190B53EC98
:101A50001A2B51EC1B0BFEF775FC53EC182BFEF701
:101A600071FC53EC192BFEF76DFC41EC1C0B53EC95
:101A7000192B51EC180BFEF70CFD41EC180B53EC35
:101A80001A2B51EC1B0BFEF704FD53EC182BFEF741
:101A9000FAFC53EC1C2BFEF76EFDFEF72CFEFEF756
:101AA000F7FD9FED1E1B53EC112BFEF7F2FC41ECF2
:101AB000100B9FED1C1B84ED100B53EC112BFEF74C
:101AC000E8FC41EC100B84ED120BFEF77DFE00EEFE
:101AD000100A0E4858304178007806F039FB94ED32
:101AE000121B51EC100B53EC112BFEF7CFFC41EC09
:101AF000100B9FED0E1B84ED140B53EC112BFEF716
:101B0000C8FCFEF7D9FDE0622670E8E6700100200F
:101B100000D02724D8F0002000902724FA48CE3B9C
:101B20001835B13D0000001319DDB141000000007F
:101B3000000059402DE9F843424C84460023607967
:101B4000DFF80481414F01261D4650B1012830D0F5
:101B5000022833D003283BD0042845D0052869D07B
:101B600063E03848A5716330C5545B1C1E2BFBD362
:101B700080F800C0417094F824108170EF21C1708A
:101B800002713049002263311E2006F096FD0021CB
:101B90001E2006F0A3FD002006F0A6FC002006F0A3
:101BA000EDFC41F2707006F0B7FC072005F010FE66
:101BB0006671002006F070FC0220607100210F2089
:101BC00006F021FC2249A06208402FD0032060715A
:101BD000606A411C02D0401C606200E06562208D9A
:101BE000400415D5042060714FF4814200210F207C
:101BF00006F035FD0021102006F005FC00F07F0105
:101C000000221248216306F032FCF878FF280FD03A
:101C1000424600210F2006F022FDA079072801D9B5
:101C2000657102E06671401CA0710020BDE8F88378
:101C3000052060716946381D07F05AFC65710098EF
:101C4000F4E70000700100200090272490F00020AD
:101C500000D0272470B50024164B25461D55641C62
:101C60001E2CFBD303F8010B124803F8011B633849
:101C700090F8240003F8020BFF2003F8010C002069
:101C80001A54120A401C0428FADB002209491E20BB
:101C900006F013FD00211E2006F020FD002006F0B6
:101CA00023FC41F2883006F037FC002006F066FC89
:101CB000002070BDD301002070470000064908B520
:101CC00009684FF4FA52B1FBF2F14143009100BFB1
:101CD000491E0091FBD208BD3C00002038B50446E7
:101CE000006800F58050816941F4801181612068AD
:101CF00000F58050806900900120FFF7DFFF206829
:101D0000009900F58050816138BD0000014800F065
:101D100050BE0000FC3300202DE9F041044621B103
:101D20004FF40060E060C000A060E069002500287A
:101D300061D028462368402619683A4A1140D4E900
:101D400002273A43024342F40070084318602068B7
:101D50000768012000F060FD206807602068466089
:101D600020684668012000F057FD20684660206822
:101D700085602068C560216888694FF6417210400F
:101D800040F08000886120688669012000F044FDF1
:101D9000206886612068C5612068C569012000F05F
:101DA0003BFD2068C561226802F5805290691E499A
:101DB00008401E4901439161206800F58050856903
:101DC000012000F029FD206800F580508561206821
:101DD000174900F580500160206800F580500568C3
:101DE000012000F019FD206800F580500560A06911
:101DF000012803D009E04FF480609BE7206800F5DC
:101E00008050C1690B4A1143C16160690A498288E7
:101E10000A640278D0F8010042EA00204864BDE874
:101E2000F08100000F8120FF233FDEF80400200234
:101E30008020C10240000100008002404109890069
:101E400001F1E021D1F8001100F01F0201209040C3
:101E5000014201D001207047002070477047000008
:101E6000002229B101291AD002291BD04FF4407257
:101E70000E490B6823F440730B600B6813430B602F
:101E80000A6822F0F8020A600A68022303EBC00025
:101E900002430A60086840F48030086070474FF4DD
:101EA0008072E5E74FF40072E2E70000103C024068
:101EB0001348016889050FD5016821F4007101609C
:101EC000016841F400610160016821F40061016072
:101ED000016841F400710160016849050FD501688E
:101EE00021F480610160016841F480510160016862
:101EF00021F480510160016841F480610160704704
:101F0000003C024008490A6822F440720A600A68EC
:101F100042F004020A600A684FF4803343EA00206A
:101F200002430A6070470000103C0240064A1368F2
:101F300023F44073136013681360136843F00103C4
:101F40001360017070470000103C0240084910B552
:101F50000C6824F440740C600C6844F440740C6009
:101F60000C6844F001040C600260436010BD000086
:101F7000103C0240074A136823F44073136013684F
:101F800043F480731360136843F00103136001800E
:101F900070470000103C0240074A136823F4407366
:101FA0001360136843F400731360136843F0010374
:101FB0001360016070470000103C02401749086838
:101FC000C206174805D5C26942F01002C26110224C
:101FD0000A600A68920605D5C26942F00802C26129
:101FE00020220A600A68520605D5C26942F004023E
:101FF000C26140220A600A68120605D5C26942F031
:102000000202C26180220A600A68920705D5C2698D
:1020100042F02002C2610220086070470C3C02407E
:102020003C3A002070B5114904460020C86101F017
:102030002DF906460E4D09E0601C07D024B101F0D1
:1020400025F9801BA04201D9032070BD2868C00378
:10205000F2D42868C00701D001202860286810F059
:10206000F200F2D0FFF7AAFF012070BD3C3A002039
:102070000C3C02402DE9F05FCC225249524803F05B
:10208000C5FB504CDFF844C1DFF844812088ACF830
:102090000000A088DFF83CA1A8F800002089DFF844
:1020A0003891AAF80000A089DFF830B1A9F8000043
:1020B000208AABF800004A4F002000BF04EB8001EB
:1020C000898A27F81010401C80B20328F6D3454EA9
:1020D0000021002006EBC10200EB810304EB830327
:1020E0001B8C22F81030401C80B20428F4D3491C09
:1020F00089B20629EDD33C4B14F8800F3B4D187084
:1021000020795870207A9870207BD870207C2870B5
:10211000207D6870207EA870207F354AE87094F892
:102120002000107094F82400507094F828009070EB
:1021300094F82C00D070B4F80C0181B22D48AB2972
:1021400001803CD0AB2101800720ACF800004FF0AB
:10215000010C0021A8F800C0A9F80010ABF800108D
:10216000AAF800104FEA010027F81010401C80B2B6
:102170000328F9D30024002006EBC40727F8101029
:10218000401C80B20428F9D3641CA4B2062CF2D3FC
:10219000C0201870A8245C7083F802C07926DE7015
:1021A000FF232B706B70AB70E9701070547082F865
:1021B00002C082F803C0BDE8F05F00F01DB8BDE8C2
:1021C000F09F0000A0EE002000000308F2010020B4
:1021D000F40100207C0100207E010020800100200D
:1021E000A401002030F000201C000020200000206E
:1021F00024000020F6010020F0B42B48304A01886A
:102200002A4801602A49098841602A490988816071
:1022100029490988C160294909880161002100BF55
:1022200032F8113000EB8104491C89B26361032943
:10223000F6D3244C0022002104EBC20301EB8206FA
:1022400033F8115000EB8606491C89B23562042927
:10225000F4D3521C92B2062AEDD31B490A7840F8F7
:10226000802F4A7842608A788260C978C1601749B5
:102270000A7802614A7842618A788261C978C161CC
:1022800013490A7802624A7842628A788262C9787F
:10229000C1621049CC220988C0F80C11F0BC034976
:1022A0000D4803F0BDBA0000F2010020A0EE0020AE
:1022B000F40100207C0100207E010020800100202C
:1022C000A401002030F000201C000020200000208D
:1022D00024000020F6010020000003082DE9F04F43
:1022E00080462DED108BB0EE479AF0EE679AB0EE77
:1022F00040CAF0EE60CA99B0B0EE46BAF0EE66BAE7
:10230000B0EE45AAF0EE65AAB0EE44DAF0EE64DA7B
:10231000B0EE43EAF0EE63EAB0EE42FAF0EE62FAB3
:10232000B0EE418AF0EE618A53EC192B51EC1C0B94
:10233000FEF7AFF841EC100B53EC1F2B8DED160B95
:1023400051EC190BFEF7A5F841EC100B0191074673
:102350008DED140B53EC1A2B51EC1C0BFEF799F876
:1023600041EC100B53EC1A2B8DED120B51EC1F0BA3
:10237000FEF78FF88B464BEC100B06468DED100BDD
:1023800053EC1E2B51EC1B0BFEF783F88A464AECEC
:10239000100B05468DED0E0B53EC1D2B51EC1E0B57
:1023A000FEF777F8894649EC100B04468DED0C0BCF
:1023B00053EC182B51EC1B0BFEF76BF841EC100B98
:1023C00053EC1D2B8DED0A0B51EC180BFEF761F849
:1023D0009DED0A0B53EC102BFEF755F89DED0C0B01
:1023E00053EC102BFEF74FF89DED0E0B53EC102B1A
:1023F000FDF7A8FF9DED100B53EC102BFDF7A2FF8E
:102400009DED120B53EC102BFEF73DF89DED140BD8
:1024100053EC102BFEF737F89DED160B53EC102BF9
:10242000FDF790FF41EC100B53EC1A2B8DED080BD0
:102430004AEC105B51EC100BFEF72BF841EC100B43
:1024400053EC192B8DED0A0B49EC104B51EC100B92
:10245000FEF71FF841EC100B53EC1A2B8DED120B0D
:1024600051EC1B0BFEF715F853EC182BFEF711F887
:1024700041EC100B53EC192B8DED100B51EC1D0B97
:10248000FEF707F853EC182BFEF703F841EC110B9D
:1024900053EC1E2B8DED0E1B51EC1C0BFDF7F9FFC1
:1024A0000D4645EC100B044653EC192B51EC100B68
:1024B000FDF7EFFF41EC100B53EC182B8DED0C0BDF
:1024C000019941EC107B51EC100BFDF7E2FF41EC60
:1024D000100B53EC1A2B8DED060B45EC104B51EC09
:1024E000100BFDF7D6FF41EC100B53EC182B8DEDC4
:1024F000000B4BEC106B51EC100BFDF7CAFF9DED80
:10250000000B53EC102BFDF7BEFF9DED060B53ECBB
:10251000102BFDF7B8FF9DED0C0B53EC102BFDF7C6
:1025200011FF9DED0E1B53EC112BFDF70BFF9DEDE5
:10253000100B53EC102BFDF7A6FF9DED120B53EC87
:10254000102BFDF7A0FF9DED0A0B53EC102BFDF7B0
:10255000F9FE9DED080B53EC102BFEF70CF8C8E9C3
:10256000020153EC1B2B51EC1D0BFDF78CFF8A462F
:1025700004464AEC1D0B53EC1E2B51EC180BFDF7D7
:1025800082FF064653EC1D2B0791FDF782FF41ECBD
:102590001E0B53EC1F2B51EC1C0BFDF777FF8946EC
:1025A000054649EC1D0B53EC192B51EC1A0BFDF7AA
:1025B0006AFF8B464BEC100B074653EC1D2B51EC7E
:1025C000100BFDF766FF53EC1E2BFDF7BBFE41EC35
:1025D0001D0B07994AEC1A4B41EC106B53EC1C2B6A
:1025E00051EC100BFDF755FF53EC1A2BFDF751FF83
:1025F0004BEC107B41EC1C0B49EC1A5B53EC1B2B96
:1026000051EC100BFDF745FF53EC1A2BFDF741FF82
:102610004AEC104B41EC1B0B49EC1A5B53EC192BA9
:1026200051EC100BFDF735FF53EC1A2BFDF731FF82
:102630004AEC104B41EC1A0B49EC195B53EC182B8C
:1026400051EC100BFDF725FF53EC192BFDF721FF83
:1026500053EC1A2BFDF717FF53EC1B2BFDF772FE03
:1026600053EC1C2BFDF76EFE53EC1D2BFDF783FF87
:10267000C8E9000119B0BDEC108BBDE8F08F000077
:1026800031B505462DED100B57482DED108BB0EEF2
:1026900047CAF0EE67CAB0EE46DAF0EE66DAB0EEA0
:1026A00045EAF0EE65EAB0EE44FAF0EE64FAB0EE18
:1026B000429AF0EE629AB0EE41AAF0EE61AAB0EE54
:1026C00040BAF0EE60BA9DED248B9DED163BFEF70F
:1026D00019FA4548B0EE485A2030F0EE685AB0EE8C
:1026E0004C4AF0EE6C4AB0EE4D3AF0EE6D3AB0EE78
:1026F000492AF0EE692AB0EE4A1AF0EE6A1AB0EEF4
:102700004B0AF0EE6B0AFEF7FDF93748B0EE485A77
:102710004030F0EE685AB0EE4C4AF0EE6C4AB0EE43
:102720004D3AF0EE6D3AB0EE4E2AF0EE6E2AB0EE73
:102730004F1AF0EE6F1A9DED160BFEF7E3F92A4CD7
:1027400004F1600094EC100BFFF7C8FD04F14001A8
:1027500094EC080B04F1700091EC084BFFF7BEFD00
:1027600004F18000203494EC100BFFF7B7FD4034E7
:1027700094ED040B94ED001B53EC102B51EC110B5A
:10278000FDF7E0FD94ED081B53EC112BFDF7DAFD8E
:1027900041EC180B85ED008B94ED061B94ED020BBC
:1027A00053EC112B51EC100BFDF7CCFD94ED0A1BF3
:1027B00053EC112BFDF7C6FD9FED0CAB41EC190B53
:1027C00053EC1A2B51EC180BFDF7D5FEC5E90001AF
:1027D00053EC1A2B51EC190BFDF7CDFEC5E90201A4
:1027E000BDEC108B11B030BD80AF002000000000A8
:1027F0000000084090F83510022903D0802141657F
:1028000001207047052180F835100068016821F02B
:10281000010101600020704770B5044600F036FDEC
:102820000546601C02D004480078044400F02EFDE8
:10283000401BA042FAD370BD300000202DE9F043C8
:1028400090F845400025012C0DD04FF0010C80F888
:1028500045C0022480F8444044F2F4574FF0004948
:102860005E1E816217E00220BDE8F08301EB451493
:10287000C4F80090C5EBC51808EB480802EB8808BF
:10288000C4E90178B54204D204F12008C4F80C80F0
:1028900000E0E1606D1C9D42E8D3026802F58052C1
:1028A000D16080F844C0002180F845100846DBE77D
:1028B0002DE9F043914690F845200024012A0AD0E2
:1028C000012680F84560022280F844204FF4801CE5
:1028D0005D1EC1621BE00220BDE8F08301EB4412E3
:1028E000C2F800C0C4EBC41707EB470809EB880720
:1028F0009760C7691FB9176847F440071760AC4273
:1029000003D202F12007D76000E0D160641C9C4232
:10291000E4D3026802F58052116180F8446000211E
:1029200080F845100846D7E7704730B590F8451055
:102930000023012908D0012280F84520022180F8D7
:1029400044100024816A1AE0022030BD0D685B1C2F
:10295000C5F30125022D0AD00D6815F4407F09D07A
:102960004163836B5B1C8363012B12D012E0826393
:10297000016302E0856B6D1C8563C96881620D6827
:10298000002D01DB042BE1D300F8442F447001201B
:1029900030BD01630B68C3F30D431B1FC363036B9F
:1029A0009B680364C96840F8281F027744770020B9
:1029B00030BD70B50446006800F5805041694FF0A5
:1029C000000549064FF0010608D5204600F0CCF975
:1029D0002068402100F58050416109E04069C0074E
:1029E0000AD0204600F08CFA206800F5805046613D
:1029F00084F8446084F8455020684FF4803100F535
:102A000080504161206800F58050406900040CD579
:102A10002046FFF789FF20684FF4004100F5805001
:102A2000416184F8446084F8455070BD2DE9FC474D
:102A30004FF000060400B146009603D094F844001D
:102A400018B107E00120BDE8FC8784F84560204606
:102A500000F0E2F86648016841F4804101600068D6
:102A600000F4804001906348016821F40001016096
:102A70000168226A11430160206800F580500168F6
:102A800041F00101016000F001FC05464FF4FA77C6
:102A900009E000BF00F0FAFB401BB84203D9032055
:102AA00004F8440F67E0206800F580500068C00714
:102AB000F0D12068006920F01C0500F0BBFE4E49F3
:102AC0004E4A0144914202D245F0080516E04C49B5
:102AD0004C4A0144914202D245F00C050EE04A49AD
:102AE0004A4A0144914209D3494908444949884224
:102AF00002D245F0040501E045F0100520680561AB
:102B00004FF400420021204600F0FCF90125A8BB4B
:102B1000FF20FFF781FE606888B300F0B7FB8046B6
:102B200041F288376A460121204600F0DBF800F0C8
:102B3000ADFBA0EB0800B84217D800984007F1D5CC
:102B40004FF480520021204600F0DCF9B0B900F0CB
:102B50009DFB80466A460121204600F0C3F800F044
:102B600095FBA0EB0800B8420AD901212046FFF7E7
:102B7000D3F804F8445F0320667064E724E018E0AB
:102B800000988006E6D56A461F21204600F0AAF884
:102B9000D0B90098C10603D54FF40061E16000E0B0
:102BA000E660400701D5A66019E04FF48040A060C0
:102BB00015E0E068A168C00840EA510082B2002137
:102BC000204600F09FF930B101212046FFF7A4F81C
:102BD00084F8445036E740F6FF70FFF71DFE494683
:102BE0002046FFF799F884F8445000202BE70000B6
:102BF000443802400438014000D3CEFEC0E1E40076
:102C000040F1E9FD40787D0100796CFC005A6202D8
:102C1000001F0AFA80F0FA02F0B500682C4987B06C
:102C2000884253D12B480024016841F000710160B3
:102C3000016801F000710591016841F08061016057
:102C4000016801F080610591016841F00061016057
:102C5000016801F000610591016841F00401016023
:102C6000016801F004010591016841F00101016072
:102C7000016801F001010591016841F04001016026
:102C80000068022500F0400005903220CDE90005E3
:102C900002AA03260B2782E8D00069460E4800F0FE
:102CA00017FA8620CDE9000502AA694682E8D0001D
:102CB0000A4800F00DFA4FF4D040CDE9000502AA11
:102CC000694682E8D000064800F002FA07B0F0BD7D
:102CD00000800240303802400008024000000240FC
:102CE000001802402DE9F047044690F84400914650
:102CF00082281DD0822084F84400226810694FF693
:102D0000FF7500F01C03208A05EAC02018434FF429
:102D1000F86303EA8111014321F0020040F001054C
:102D2000156100F0B3FA064601274FF4803810E031
:102D30000220BDE8F08700BF00F0A8FA801B4045E4
:102D400005D304F8447F002060700320F1E7206879
:102D50000569E807F0D12068406981B2C9F8001020
:102D600084F844700020E4E70148006808F0F2BBF2
:102D700028000020F8B5044690F84500012839D015
:102D8000012584F84550022084F84400206800267C
:102D9000016841F008010160206800680090284641
:102DA000FEF78CFF2168009808602068016841F0F8
:102DB000040101602068006800900120FEF77EFF9A
:102DC0002168009808602046FEF788FF206800F51B
:102DD0008050816941F400518161206800F5805084
:102DE000816941F00201816184F8445084F84560B2
:102DF0000020F8BD0220F8BDF0B590F84520002372
:102E0000012A11D0012780F84570022280F8442061
:102E1000002459B1C66A3268002A0ADA122100F881
:102E2000441F44700120F0BD0220F0BD00F8447F33
:102E3000F7E740F2F455A9420BD9B1FBF5FCB1FB21
:102E4000F5F205FB1C1CBCF1000F00D0521C012A3E
:102E500043D1326842F040523260C26AC1F30C0181
:102E60005160C16A0A6842F000420A60C16AC968DA
:102E7000C16234E0D6F800C02CF0405CC6F800C057
:102E800033B9C66AD6F800C04CF0805CC6F800C002
:102E9000C66A7560561EB34214D1C66AD6F800C021
:102EA0004CF0005CC6F800C0C2F10106C6EBC616C5
:102EB00006EB4606D0F82CC001EB8606C6F30C06DE
:102EC000CCF80460C66AD6F800C04CF0004CC6F8D6
:102ED00000C0C66A5B1CF668C6629342CAD301682A
:102EE00001F580514A69520705D504224A610168FB
:102EF00001F580514C6000F8447F44700020F0BD23
:102F0000704700002DE9F041044690F84400422843
:102F10001ED0422084F84400236818694FF6FF76DB
:102F200000F01C05208A06EAC02028434FF4F8650B
:102F300005EA8111014390B241F003055861206810
:102F4000056100F0A3F9064601274FF4803810E030
:102F50000220BDE8F08100BF00F098F9801B4045D9
:102F600005D304F8447F002060700320F1E7206857
:102F70000569E807F0D184F84470EAE72DE9F047E5
:102F8000044622480F46017E01290AD001218046CD
:102F900001764CF250394846FFF744F8020003D05E
:102FA0002FE00220BDE8F0874FF0FF303860206846
:102FB000174D012801D0A6681CE0207C6168FEF74F
:102FC000A1FF4846FFF72EF80246286820F00400CB
:102FD000286014E0217C3046FEF742FF4846FFF7A8
:102FE00021F80200286820F0FA00286001D03E6035
:102FF00005E0761CD4E902100844B042EAD8FEF796
:1030000057FF002188F818101046CBE73C3A002003
:10301000103C02400348016841F00041016000207B
:1030200070470000103C02402DE9F0471B4E05465A
:103030001446307E1F468946012808D0012030768C
:103040004CF250384046FEF7EDFF18B114E0022074
:10305000BDE8F0879DB1012D16D0022D19D0224672
:103060003B464846FEF772FF4046FEF7DBFF0C4941
:103070000A6822F001020A6000213176E8E7E1B235
:103080004846FEF753FFEFE7A1B24846FEF772FF4E
:10309000EAE721464846FEF77FFFE5E73C3A002095
:1030A000103C0240074900200A68002A09DA054A54
:1030B000054B0C3A1360054B13600968002900DAD0
:1030C00001207047103C024023016745AB89EFCDDA
:1030D0002DE9F84FDFF87CB100224FF001084FF0E6
:1030E000030A4FF00F090BF1040E00BF0B6808FA3A
:1030F00002F42340A3426ED14D68022D01D0122D5F
:103100000ED1D50800EB850CDCF820505607F70EE1
:1031100009FA07F6B5430E69BE402E43CCF820608D
:10312000066855000F790AFA05FC07F0030726EA3E
:103130000C06AF40374307604E68012E05D0022EC3
:1031400003D0112E01D0122E0ED18668CF6826EA48
:103150000C06AF40374387604668A6430C79C4F33A
:103160000014944034434460C6688C6826EA0C0618
:10317000AC403443C4604C68E40065D5364C2568E7
:1031800045F480452560246822F0030504F480445A
:103190000094324C2E19D6F8084895072F0F09FADB
:1031A00007F5AC432E4DA84201D1002524E02D4D5A
:1031B000A84201D101251FE02B4DA84201D10225D3
:1031C0001AE02A4DA84201D1032515E0284DA84256
:1031D00002D1042510E037E0264DA84201D1052593
:1031E0000AE0254DA84201D1062505E0234DA8425D
:1031F00001D1072500E00825BD402543C6F8085841
:10320000DBF800405D464E689C43F60300D51C4346
:103210002C60DEF8004075464E689C43B60300D52E
:103220001C432C600B4D08352C684E689C43F602FD
:1032300000D51C432C60074D0C352C684E689C4310
:10324000B60200D51C432C60521C102AFFF44EAF6E
:10325000BDE8F88F003C0140443802400030014096
:10326000000002400004024000080240000C02403E
:10327000001002400014024000180240001C0240EE
:103280000AB1816170470904FBE7000001488068CA
:10329000704700003000002070B504001BD094F887
:1032A0003D00002520B984F83C50204600F0AEF8DF
:1032B000242084F83D002068016821F001010160AC
:1032C00000F0BEFA4D4A6168914201D84C4900E0D5
:1032D0004C49884201D2012070BD4B492368B0FBA4
:1032E000F1F15E6826F03F060E435E60636893422C
:1032F00006D94FF4967359434FF47A73B1FBF3F147
:103300002368491C1E6A26F03F0631431962616832
:10331000914210D84900401EB0FBF1F2521CC2F39A
:103320000B02042A01D2042022E0B0FBF1F0401C81
:10333000C0F30B001CE0A368F3B301EBC10202EB86
:103340000116421EB2FBF6F2521C42F480421205F4
:1033500049D093B301EBC10202EB0111401EB0FB57
:10336000F1F0401CC0F30B0040F4804040F40040FA
:103370002168CA694CF6FF739A431043C861D4E9C7
:103380000701084321680A6822F0C0021043086060
:10339000D4E9030101432068826848F2FF339A436D
:1033A00011438160D4E9050108432168CA6822F00D
:1033B000FF021043C86001E00EE016E020680168DB
:1033C00041F0010101602564202084F83D0025635F
:1033D00084F83E50002070BD01EB4106421EB2FB56
:1033E000F6F2521CB3E70120C2E701EB4101401E97
:1033F000B0FBF1F0401CC0F30B00B7E7A086010062
:1034000080841E0000093D0040420F0010B586B0C8
:10341000044614216846FCF77DFF14492068884261
:1034200021D11348016841F002010160006869463A
:1034300000F0020005904FF44070009012200190BF
:103440000120029003200390042004900948FFF714
:103450003FFE07481030016841F400110160006828
:1034600000F40010059006B010BD000000540040AC
:10347000303802400004024002488168027811445A
:1034800081607047300000200B4810B5016841F49E
:1034900000710160016841F480610160016841F4DC
:1034A00080710160032000F073F80F2000F006F82F
:1034B00000F024F8002010BD003C024070B50D4D16
:1034C00004464FF47A712878B1FBF0F00A49096894
:1034D000B1FBF0F000F0C3FD48B9102C07D2002278
:1034E0002146501E00F034F800206C6070BD0120B1
:1034F00070BD0000300000203C0000200C4882B06D
:10350000016841F480410160006800F4804000904F
:103510000748001F016841F08051016000680022E7
:1035200000F0805000900F21901E02B000F010B803
:1035300044380240002809DB00F01F0201219140BD
:103540004009800000F1E020C0F800117047000041
:10355000F0B40E4B1B680C46C3F30223C3F10705FE
:10356000042D00D90425191D072901D2002300E0EC
:10357000DB1E012606FA05F1491E214099409E40B6
:10358000761E16403143F0BC02F056BF0CED00E051
:10359000064900F0070208684FF6FF03184040EAAA
:1035A0000220034A10430860704700000CED00E061
:1035B0000000FA052DE9F0418AB0040004D094F827
:1035C000BD03002520B108E001200AB0BDE8F0816C
:1035D00084F8BC53204600F05BF8032084F8BD0358
:1035E000206802F0ADFE04F11001282288466846EA
:1035F000FCF777FE94E80F0002F07AFD0226D0BBBC
:103600000021206802F0C4FE002001270FE000BF67
:10361000C0EBC00104EB810181F83D7001F83C0F63
:10362000C880CD708D60CD60401CC0B24D616168B6
:103630008142EDD8002011E0C0EBC00104EB810114
:1036400081F8FD5181F8FC0181F8FF51C1F8045265
:10365000C1F80852401CC0B2C1F8105261688142E2
:10366000EAD8282241466846FCF73BFE94E80F0062
:1036700002F0A0FD10B184F8BD63A5E784F83850CE
:1036800084F8BD73206802F089FD00209DE70000EA
:1036900010B586B0044614216846FCF73BFE20684E
:1036A000B0F1A04F27D115480021026842F0010275
:1036B0000260006800F0010005904FF4C0500090D7
:1036C0000220CDE90101032003900A2004906946FD
:1036D0000B48FFF7FDFC0948001D016841F080011F
:1036E000016006481430016841F4804101600068BF
:1036F00000F48040059006B010BD00003038024054
:10370000000002402DE9F0470E46050065D0DFF8C5
:103710001481D8F80000F7B200F00F00B04207D2D1
:1037200088F80070D8F8000000F00F00B04254D1C3
:1037300028683D4C810712D5400703D5206840F426
:10374000E05020602878000703D5206840F46040EE
:1037500020602068A96820F0F000084320602878E5
:10376000C0072DD0304968680839012812D00228D6
:1037700013D0032811D00968890700292DDA2168A0
:1037800021F0030101432160FFF780FD814641F2F2
:10379000883A0EE009688903EFE709688901ECE7D8
:1037A000FFF774FDA0EB0901514502D90320BDE8E4
:1037B000F0872068696800F00C00B0EB810FEFD152
:1037C000D8F80010404601F00F01B14207D9077048
:1037D000006800F00F00B04201D00120E7E7287830
:1037E000400705D52068E96820F4E05008432060D0
:1037F0002878000706D52068296920F4604040EA4F
:10380000C100206000F03CF82168084AC1F30311B0
:10381000515CC840064908600F20FFF74FFE0020AA
:10382000C5E70000003C02400838024020190108AA
:103830003C00002001480068704700003C00002068
:103840000448054900680968044AC1F38221515CB3
:10385000C84070473C000020083802403019010879
:103860000448054900680968044AC1F34231515CC3
:10387000C84070473C000020083802403019010859
:10388000154810B5006810F00C02144813D0411010
:10389000042A0FD0082A0ED10F4C241F2268236857
:1038A00002F03F025B0207D52068C0F38810A0FB3E
:1038B000010106E0084610BD2168C1F38811A1FB93
:1038C00000010023FCF7DCFC2168C1F30141491C25
:1038D0004900B0FBF1F010BD083802400024F400AC
:1038E0002DE9F84F050076D02878DFF8F8B2BE4C05
:1038F000C00749D0DBF800105846C1F38101012907
:1039000008D00068C0F3810002280AD1201D006899
:10391000400206D52068800336D568680028E2D0CA
:1039200032E06868B0F5803F10D0B0F5A02F206875
:1039300010D020F480302060206820F480202060A7
:103940006868A0B1FFF7A2FC06460CE0206840F4CE
:103950008030F4E740F480202060F7E7FFF796FC22
:10396000801B642873D820688003F7D50CE0FFF72C
:103970008DFC064605E000BFFFF788FC801B64282D
:10398000F0D820688003F7D42878DFF860828007B9
:103990004FF000093ED5DBF80010584611F00C0F2F
:1039A00009D00068C0F3810002280BD18D48001FA8
:1039B0000068400206D42068800715D5E868012811
:1039C00009D111E0E868B8B10120C8F80000FFF79C
:1039D0005DFC064605E002E1FFF758FC801B02286B
:1039E000C0D820688007F7D52068296920F0F80042
:1039F00040EAC10020600DE0C8F80090FFF746FCE7
:103A0000064604E0FFF742FC801B02281FD820680E
:103A10008007F7D42878000722D5724E7448696968
:103A20006C3671B101210160FFF730FC074604E0FC
:103A3000FFF72CFCC01B022809D830688007F7D597
:103A40000EE0C0F80090FFF721FC074605E083E098
:103A5000FFF71CFCC01B02287ED830688007F7D413
:103A60002878400768D5DFF87CA100270AF1380ADA
:103A7000DAF80000C0000BD4DAF8001041F08051F1
:103A8000CAF80010DAF80000012700F0805000901A
:103A9000584E3068C00510D4306840F480703060F3
:103AA000FFF7F4FB009005E0FFF7F0FB0099401AE8
:103AB000022851D83068C005F6D54A4EA868683645
:103AC00001280FD00528306810D020F001003060A8
:103AD000306820F004003060A868B8B1FFF7D6FB6A
:103AE00000900FE0306840F00100F4E740F004007F
:103AF0003060F7E7FFF7CAFB0099411A41F28830BE
:103B0000814264D830688007F4D50EE0FFF7BEFB31
:103B1000009007E0FFF7BAFB0099411A41F28830A4
:103B2000814254D830688007F4D42FB1DAF80010FD
:103B300021F08051CAF80010A869C0B3DBF800106A
:103B4000C1F3810102294AD00228484607D0C8F8AB
:103B50006000FFF79BFB00E039E005463AE047468E
:103B6000C8F86000FFF792FB064604E0FFF78EFB03
:103B7000801B02282BD820688001F7D4D5E90701E3
:103B80000843A96A1C4A490802EB01416A6A41EAF2
:103B90008211084395F82C1040EA01611148001F7A
:103BA000016001203866FFF771FB054605E014E06F
:103BB000FFF76CFB401B022809D820688001F7D56D
:103BC0000BE000BFFFF762FB401B022802D9032075
:103BD000BDE8F88F20688001F4D40020F8E70120C8
:103BE000F6E7000008380240003802400000474273
:103BF000800E4742007000400000FFFF90F8510027
:103C0000704770B5040005D00025A56294F85100F6
:103C100010B106E0012070BD84F85050204600F03D
:103C200031F8022084F851002068016821F0400139
:103C30000160D4E901010843D4E9031211430843A8
:103C400061690843218B01F400710843E16908436D
:103C5000216A0843A16A084321680860A069042119
:103C600001EA1040616A0843216848602068C16920
:103C700021F40061C1616565012084F851000020D4
:103C800070BD0000F0B587B0044614216846FCF70B
:103C900041FB1F4F236800221E49022403250526ED
:103CA0001D48BB4213D11B4B14331F6847F4805788
:103CB0001F601B6803F4805305930B6843F00203F5
:103CC0000B60096801F002010591382116E0134FDD
:103CD000BB421BD10F4B10331F6847F480471F6056
:103CE0001B6803F4804305930B6843F002030B60E9
:103CF000096801F0020105914FF46041CDE900141B
:103D000002AB694683E86400FFF7E2F907B0F0BD53
:103D100000300140303802400004024000380040CA
:103D20002DE9F84F044690F8500000271D4616462E
:103D3000894601280DD04FF0010B84F850B0FFF7F1
:103D4000A5FA804694F85100BA46012804D002270B
:103D50008EE00220BDE8F88FB9F1000F7DD0002E73
:103D60007BD0032084F85100C4F854A0C4F83090EC
:103D7000A686E686C4F838A0A4F83CA0A4F83EA025
:103D8000C4F844A0C4F840A0A068B0F5004F04D126
:103D90002068016841F4804101602068016849069B
:103DA00003D4016841F040010160E068B0F5006FA4
:103DB000606803D030B3012E24D040E008B1012E5A
:103DC0001CD1206B21680088C86006E020688168EB
:103DD000890709D5216B0988C160206B801C20638D
:103DE000E08E401EE08609E0FFF750FAA0EB0800E5
:103DF000A84202D3681C01D031E07DB3E08E0028D8
:103E0000E4D11FE0206B21680078087306E0206889
:103E10008168890709D5216B09780173206B401CE3
:103E20002063E08E401EE08609E0FFF72FFAA0EB4A
:103E30000800A84202D3681C01D010E075B1E08EE2
:103E40000028E4D142462946204601F035FC08B15D
:103E500020206065A06820B107E008E0FFE70327A5
:103E600006E02068C16880680090606D00B101279D
:103E700084F851B084F850A038466BE72DE9F84F2C
:103E8000044690F8500000270A9E1D4692468B4635
:103E90004FF0010901280ED0012084F85000FFF7EF
:103EA000F5F9804694F85100616801280CD0B1F50D
:103EB000827F07D102E00220BDE8F88FA16809B92E
:103EC000042801D00227C2E0BBF1000F27D0BAF1CD
:103ED000000F24D01DB394F85100042802D005200F
:103EE00084F8510000206065C4F838A0E587A587F4
:103EF000C4F830B0E586A586206460642068016857
:103F0000490603D4016841F040010160E068B0F562
:103F1000006F606805D0E8B3012D46D07FE001272F
:103F200095E008B1012D39D1206B21680088C86067
:103F3000206B801C2063E08E401EE0862EE020680F
:103F4000816889070FD5E18E69B1B9F1010F0AD1F6
:103F5000216B0988C160206B801C2063E08E401EAD
:103F6000E0864FF0000920688168C9070CD0E18F16
:103F700051B1C068A16B0880A06B801CA063E08F6A
:103F8000401EE0874FF00109FFF780F9A0EB080021
:103F9000B04200E009E001D3701C50D1E08E00284F
:103FA000CDD1E08F0028CAD13FE0206B2168007896
:103FB0000873206B401C2063E08E401EE0862EE0DC
:103FC0002068816889070FD5E18E69B1B9F1010FC9
:103FD0000AD1216B09780173206B401C2063E08EAD
:103FE000401EE0864FF0000920688168C9070CD0A8
:103FF000E18F51B1C068A16B0870A06B401CA06339
:10400000E08F401EE0874FF00109FFF73FF9A0EB7A
:104010000800B04202D3701C01D010E07EB1E08EE7
:104020000028CDD1E08F0028CAD142463146204633
:1040300001F042FB28B101272020606507E003273B
:1040400005E0A06818B92068C16880680090012068
:1040500084F85100002084F8500038462CE710B551
:10406000401EB0F1807F01D3012010BD4FF0E0244D
:1040700060610F21601702F0DFF90020A0610720C6
:104080002061002010BD7047704770B590F83C204B
:10409000012A19D0012400F83C4F0222427050F846
:1040A0003C3C5A689D6822F070060A6849683243B1
:1040B00025F0800529435A6050F83C2C91604470EB
:1040C00000210170084670BD022070BD10B50400CB
:1040D00003D094F83D0010B107E0012010BD00208E
:1040E00084F83C00204600F00DF8022084F83D00E2
:1040F000211D206801F03CFD012084F83D000020D6
:1041000010BD000008B501681148B1F1804F0BD017
:10411000104A914210D1016841F00201016000682B
:1041200000F00200009008BD016841F0010101604B
:10413000006800F00100F5E7074A9142F3D10168F9
:1041400041F004010160006800F00400EAE70000AB
:104150004038024000040040000800400168CA687E
:1041600042F00102CA600068816801F00701062977
:1041700003D0016841F0010101600020704770B573
:10418000044690F83C00012817D0012584F83C50E3
:10419000022084F83D002068826822F0770222F431
:1041A0007F4282600868502830D00DDC20284DD036
:1041B00005DC98B310283BD148E0022070BD3028C0
:1041C00044D0402834D139E0602828D0702806D067
:1041D000B0F5805F2CD0B0F5005F29D10AE0CB6844
:1041E000D1E90121206801F027FD2068816841F0B4
:1041F000770109E0CB68D1E90121206801F01CFDBD
:104200002068816841F48041816011E0CA68496892
:10421000206801F023FD5021206807E016E0CA68FD
:104220004968206801F02BFD6021206801F00EFD37
:1042300084F83D50002084F83C0070BDCA6849688D
:10424000206801F00BFD40212068EFE7226801465D
:104250001046EBE7704770B50446006801694FF0FF
:104260000005C943890715D4C168C943890711D41A
:10427000E91E0161012020772068806980072046BF
:1042800002D0FFF7E7FF04E000F098F8204600F0C6
:1042900096F8257720680169C943490717D4C16892
:1042A000C943490713D46FF004010161022020774C
:1042B0002068806910F4407F204602D0FFF7CAFFD3
:1042C00004E000F07BF8204600F079F825772068BC
:1042D0000169C943090716D4C168C943090712D443
:1042E0006FF008010161042020772068C069800711
:1042F000204602D0FFF7AEFF04E000F05FF8204652
:1043000000F05DF8257720680169C943C90617D414
:10431000C168C943C90613D46FF0100101610820B8
:1043200020772068C06910F4407F204602D0FFF754
:1043300091FF04E000F042F8204600F040F82577B5
:1043400020680169C943C90708D1C168C943C907C1
:1043500004D1891E0161204600F032F8206801690D
:10436000C943090609D4C168C943090605D46FF0D9
:10437000800101612046FFF786FE20680169C9437C
:10438000490609D4C168C943490605D46FF0400104
:104390000161204600F03EF820680169C9438906A2
:1043A0000BD4C168C943890607D46FF020010161AD
:1043B0002046BDE87040FFF767BE70BD704770478C
:1043C00010B50068B0F1804F1AD00E49884217D15D
:1043D0000D4CA078C82801D8401CA0700B48A178CB
:1043E0000088C0F10A0000EB8000884208DA6168AA
:1043F000002905D00122064800F05CFA0020606028
:1044000010BD00000004004000000020F201002068
:10441000FC0100207047704770B5026804461068C0
:10442000D168536910F00F0F50D003F0010501F46B
:10443000907635435DD0C20705D0CA0503D5E26B3F
:1044400042F00102E263420705D5DA0703D0E26BCE
:1044500042F00202E263820705D5DA0703D0E26B7D
:1044600042F00402E263020705D5DA0703D0E26BEB
:1044700042F00802E263E26B002A33D0800604D5E2
:10448000880602D5204601F022FC20684069E16BD5
:10449000C0F38010090700D428B3204601F009FCBE
:1044A0002068416949061AD5416921F040014161FE
:1044B000606BA0B11B490165606BFEF79BF900289A
:1044C00010D0606B016DBDE870400847830610D5C1
:1044D0008B060ED52046BDE8704001F0F8BB2046A3
:1044E000FFF799FF70BD2046FFF795FF0020E063BE
:1044F00070BD030606D50B0604D52046BDE8704006
:1045000001F086BD4006F3D54806F1D5D1682046B6
:1045100021F04001D160202184F8391000F045F9E4
:1045200070BD0000A35C000870B5040004D094F8CE
:104530003900002510B106E0012070BD84F8385024
:10454000204600F023F8242084F839002068C16850
:1045500021F40051C160204601F004FC206801698B
:1045600021F4904101612068416921F02A014161F3
:104570002068C16841F40051C160E563202084F8DF
:10458000390084F83A00002070BD000070B586B094
:10459000044614216846FBF7BDFE204E21682048E2
:1045A0000222012303240725B14217D11C491431EB
:1045B0000E6846F010060E60096801F010010591C2
:1045C000016841F0010101600068694600F00100E6
:1045D000059060028DE83D0012481AE0124EB1428B
:1045E00019D10F4910310E6846F480260E60096813
:1045F00001F480210591016841F002010160006829
:10460000694600F0020005904FF440608DE83D00DF
:104610000648FEF75DFD06B070BD000000100140C9
:1046200030380240000002400048004000040240D0
:1046300090F83A30202B22D1F9B1F2B190F838300D
:10464000012B1CD081628285C2850021C163222298
:1046500080F83A2080F838100168CA6842F4807205
:10466000CA6001684A6942F001024A610068C16893
:1046700041F02001C16000207047012070470220F6
:10468000704700000168C868800624D4124B0022DD
:10469000124899420CD18270114B41680278C829A6
:1046A0005A5401D2491C416001220C490D4810E0C6
:1046B0000D4B99420FD1C270094B8168C8334278C3
:1046C0005A54142901D2491C816004490122491C11
:1046D0000648FFF7ADBF7047001001400000002002
:1046E000FC010020B435002000480040F4350020D3
:1046F0002DE9F843044690F839001F4616460D464A
:10470000202850D1A5B19EB194F8380001284AD094
:10471000012084F838004FF00008C4F83C802120C4
:1047200084F83900FEF7B2FDA6848146E68426E0CF
:104730000120BDE8F883E08C401EE084A0684B4671
:10474000B0F5805F4FF000024FF0800120460097E7
:1047500003D001F08EFCE8B90DE001F08AFCC8B985
:1047600028882168C0F308004860206908B16D1CE2
:1047700005E0AD1C03E0216815F8010B4860E08CF2
:104780000028D8D14B46002240212046009701F056
:1047900070FC08B10320CCE7202084F8390084F8AD
:1047A00038800020C5E70220C3E77047FEE700001D
:1047B00070B5294953EC112B2DED088B01EBC00589
:1047C00001F5805101EBC004B0EE40BAF0EE60BAE2
:1047D00094ED000BB0EE42AAF0EE62AA95ED009BBC
:1047E00051EC100BFBF7AEFD41EC180B53EC1A2B00
:1047F000FBF7A8FD41EC100B51EC180B53EC102B00
:10480000FBF7B9FE41EC1A0B53EC192B51EC1B0BC7
:10481000FBF739FE53EC1A2BFBF73BFE53EC192B3D
:10482000FBF790FD9FED0D0B41EC190B53EC1A2B90
:1048300051EC100BFBF727FE53EC182BFBF729FE6E
:10484000C4E9000185ED009BB0EE490AF0EE690A6B
:10485000BDEC088B70BD0000A0C00020000000006F
:104860000000F03F70B50C462DED048BFBF7F2FE17
:104870009FED0D9B53EC192BFBF70BFE0C4D41EC00
:10488000180B35F91400FBF7E5FE53EC192BFBF779
:1048900000FE53EC182BFBF755FDFBF70DFF25F839
:1048A0001400BDEC048B70BD000000000000E03F70
:1048B000A0E0002070B5044634480D460260881E12
:1048C000C1B22046FCF708F9314A2178128891429A
:1048D0005BD1611911F8022CB2EB102F55D111F8F0
:1048E000011CC0B2814250D100F0C2F860780328A8
:1048F00005D0284B062810D0102842D11EE0E078C1
:10490000A178227900EB0120617901EB02214218A4
:10491000642A36D800F040F833E0E078A1782279B4
:1049200000EB01216079642900EB022029D823F8EB
:1049300011002946204600F063F81CE0E078A178D9
:1049400000EB01226079217900EB012150186428E5
:1049500017D800200AE000BF04EB40052E7AED795D
:1049600006EB05251618401C23F816508842F3D391
:10497000104600F05BF800F0F3F8BDE87040FDF77A
:104980003BBCBDE8704000F0EBB870BD6C0100208E
:10499000F4010020D8BF0020F0B50B46164999B0AD
:1049A000032409788DF8001003218DF801105900B7
:1049B0008DF802106D460021104F0BE0421837F8B9
:1049C0001260320A2A55641CE2B2AE54521C491CD1
:1049D000D4B2C9B29942F1D321462846FCF77CF8FB
:1049E000010A2955641CE1B26854491CC9B26846E1
:1049F00000F006F819B0F0BDF4010020D8BF002087
:104A000070B5094C06460D462068012802D1304693
:104A100001F0D6FC2068032805D129463046BDE8C0
:104A2000704001F0D7BC70BD6C0100201CB50F4A6E
:104A300012788DF8002010228DF80120020A8DF8DE
:104A400002208DF80300080A8DF804008DF8051087
:104A500006216846FCF740F8010A8DF806108DF82B
:104A6000070008216846FFF7CBFF1CBDF4010020BA
:104A700070B52C482C49314A008808802B480088A2
:104A800048802B48008888802A480088C8802A48A7
:104A900000880881002000BF32F8103001EB40048C
:104AA000401C80B263810328F6D3254C00220020ED
:104AB00004EBC20300EB820633F8105001EB46060C
:104AC000401C80B235820428F4D3521C92B2062ACC
:104AD000EDD31C48214A0088A1F840001A480088FC
:104AE000A1F8420019480088A1F84400184800883D
:104AF000A1F8460017480088A1F848001648008829
:104B0000A1F84A00002000BF32F8103001EB400449
:104B1000401C80B2A4F84C300728F5D30A20A1F835
:104B2000620070BDF2010020D8BF0020F401002017
:104B30007C0100207E01002080010020A4010020D3
:104B400030F0002082010020840100208601002036
:104B5000880100208A0100208C01002060F00020E4
:104B600030B52C4A1088092801D82B490880508874
:104B7000FF2801D8294908809088012801D82849B0
:104B80000880D088032801D826490880108906218A
:104B9000B1EB102F04D3C1B2F72901D82249088004
:104BA0002249002002EB40035B8921F81030401CB1
:104BB00080B20328F6D3002108461D4B0AE00020EE
:104BC00008E038B100EB810502EB45052D8A24F899
:104BD00010500AE000EB810402EB4404248A012C0B
:104BE00001D823F8314003EBC104401C80B20428F3
:104BF000E7D3491C89B20629E1D3B2F84000042862
:104C000001D80C490880B2F84200F72801D80A49B7
:104C1000088030BDD8BF0020F2010020F401002040
:104C20007C0100207E01002080010020A4010020E2
:104C300030F00020820100208401002070B5244C57
:104C40009AB06D4624781E9E8DF8004003248DF89E
:104C5000014018248DF80240040A8DF804001D4814
:104C60008DF8034000888DF80810040A8DF805407F
:104C70008DF80600080A8DF80700100A8DF8090063
:104C80008DF80A20180A8DF80B000D248DF80C30D1
:104C90005FF0000036F81010090A2955641CE1B2D3
:104CA00016F810206A54491C401CCCB20728F1D3D6
:104CB00021462846FBF710FF010A2955641CE1B282
:104CC0006854491CC9B26846FFF79AFE1AB070BD15
:104CD000F40100208601002000B585B014220649A9
:104CE0006846FBF7FEFA0021684606F097FC034988
:104CF000086005B000BD0000F81801080C00002095
:104D00002DE9F04786B014216846FBF703FB6248A3
:104D10000024016841F010010160016801F01001F8
:104D20000591016841F020010160016801F0200156
:104D30000591016841F080010160016801F0800186
:104D40000591016841F004010160016801F004016E
:104D50000591016841F001010160016801F0010164
:104D60000591016841F002010160016801F0020152
:104D70000591016841F008010160016801F0080136
:104D80000591016841F0400101600068434E00F068
:104D900040004FF4C0650590002229463046FEF7DA
:104DA0006FFADFF8FCA001224FF482515046FEF763
:104DB00067FA3C4F00224FF410613846FEF760FA64
:104DC00001224FF481613846FEF75AFADFF8D89095
:104DD000012280214846FEF753FA1C20CDE9000449
:104DE000DFF8C880694640460294FEF771F90095E5
:104DF0000125CDE90154694630460394FEF768F970
:104E00002B4EE803CDE90006694602944046FEF7C2
:104E10005FF92803CDE900050220CDE9024069468B
:104E20005046FEF755F9280200901120CDE9010403
:104E3000694638460394FEF74BF96802CDE900064F
:104E4000694602943846FEF743F940F60840009060
:104E5000CDE90154694638460394FEF739F9032039
:104E60008027CDE90240CDE9007569464846FEF746
:104E70002FF940200090CDE9015469465046039433
:104E8000FEF726F90097CDE9016469465046FEF722
:104E90001FF906B0BDE8F087303802400014024028
:104EA00000040240000C02400018024000100240C2
:104EB000000011100D4810B50B4901600C4941600C
:104EC00000214FF480428160C0E903124161816199
:104ED000C1610162FEF7E0F9002803D0BDE810408F
:104EE000FCF7BCBF10BD000000540040D8020020F9
:104EF000A0860100FEB5384CC023A8222370627042
:104F00000120A0706F21E170251DFF2129706970BB
:104F1000A97000272E1DEF7033707270B070F070A2
:104F2000394638460BF04EFA2068E17803BA0A0693
:104F300003F47F4342EA032203BA00BA03F47F0377
:104F4000084342EA1322A4F10C0142EA106008600F
:104F50002868E97803BA0A0603F47F4342EA032289
:104F600003BA00BA03F47F03084342EA1322A4F110
:104F7000080142EA106008603068F17803BA0A0656
:104F800003F47F4342EA032203BA03F47F0300BA27
:104F900042EA1322084342EA1060211F231F0860DF
:104FA0000E480F490097CDE901101A1F111F0D4837
:104FB00006F0E4F80B4806F083F90A4890F82B0055
:104FC0004007084803D5BDE8FE4006F0B5B9BDE886
:104FD000FE4006F07BB900001C000020950501088A
:104FE0001D9400082C03002010B5002205211C2070
:104FF000FEF7AEFA1C20FEF79DFA002205211D20C7
:10500000FEF7A6FA1D20FEF795FA002205211E20C4
:10501000FEF79EFA1E20FEF78DFA002205212520BC
:10502000FEF796FA2520FEF785FA002205212720B3
:10503000FEF78EFA2720FEF77DFA002205213D209B
:10504000FEF786FABDE810403D20FEF773BA000077
:10505000104810B50E4901604FF482714160002183
:105060008160C1604FF400720161C0E9051218222D
:10507000C0E90721416281620A21C162FEF7C1FDD8
:10508000002803D0BDE81040FCF7E8BE10BD0000CA
:105090000030014044340020104810B50E49016032
:1050A0004FF48271416000218160C1604FF4007251
:1050B0000161C0E905121822C0E90721416281623D
:1050C0000A21C162FEF79DFD002803D0BDE8104013
:1050D000FCF7C4BE10BD0000003800409C34002026
:1050E00010B586B0002416480094019402940394ED
:1050F00004944FF080410594016042F2CF01C0E971
:1051000001140121C0E903148461FEF7DFFF08B137
:10511000FCF7A4FE4FF48050009069460848FFF762
:105120002EF808B1FCF79AFE049404A904480594EB
:10513000FEF7ABFF002801D0FCF790FE06B010BDD3
:10514000F434002010B586B0002417480094019470
:1051500002940394049413490594016042F2CF0130
:10516000C0E901140121C0E903148461FEF7AEFF18
:1051700008B1FCF773FE4FF48050009069460A486E
:10518000FEF7FDFF08B1FCF769FE049404A9064888
:105190000594FEF77AFF002801D0FCF75FFE06B009
:1051A00010BD0000000400403435002010B586B06A
:1051B0000024174800940194029403940494134922
:1051C0000594016042F2CF01C0E901140121C0E958
:1051D00003148461FEF77AFF08B1FCF73FFE4FF439
:1051E0008050009069460A48FEF7C9FF08B1FCF7F5
:1051F00035FE049404A906480594FEF746FF0028EE
:1052000001D0FCF72BFE06B010BD000000080040E6
:10521000743500200C4810B50A4901604FF4E131A3
:105220004160002181600C22C160C0E904128161EB
:10523000C161FFF779F9002803D0BDE81040FCF701
:105240000DBE10BD00100140B43500200C4810B553
:105250000A4901604FF4E1314160002181600C2274
:10526000C160C0E904128161C161FFF75DF90028E6
:1052700003D0BDE81040FCF7F1BD10BD0048004070
:10528000F43500200C4810B54FF0A0410160042116
:10529000416002220021C0E90321C0E90621016228
:1052A0004162C1620163FEF785F9002803D0BDE8C1
:1052B0001040FCF7D3BD10BD34360020FEE7704728
:1052C0002DE9F04F4FF0000B2DED108B87B036AD70
:1052D0005E46DDE93C74DDF8D0C095EC068B2AAD66
:1052E00095EC0ABBEE4D05F1900885EC100B9DED99
:1052F000200B85ED100B9DED220B85ED120B9DED26
:10530000240B85ED140B9DED260B85ED160B9DED05
:10531000280B85ED180B683588EC068B85EC0ABBED
:105320000125ADF80850ADF80C10ADF81030ADF80F
:105330000A00ADF80E20ADF812C0ADF814709FED64
:10534000D9AB02A830F8160001287CD1701C85B2B8
:105350004DE102A830F81500012875D1681C87B20C
:1053600040E102A830F8170001286ED1002000901B
:10537000DFF82C8305EB450008EBC00A06EB46007E
:1053800008EBC0099AED021B99ED020B53EC112BAF
:1053900051EC100BFBF777F8B0EE4A9AF0EE6A9AF0
:1053A00041EC100BB0EE491AF0EE691A01F060F80A
:1053B000B0EE408AF0EE608A9AED001B99ED000B8A
:1053C00053EC112B51EC100BFBF75DF841EC100B7B
:1053D000B0EE491AF0EE691A01F04AF8B0EE401A40
:1053E000F0EE601A53EC182B51EC110BFAF7AAFFF0
:1053F00041EC100B01F064FEB0EE408AF0EE608AE2
:105400009AED040B51EC180B53EC102BFAF79AFFA2
:1054100099ED041B53EC112BFBF7BEF910D299ED5B
:10542000040B51EC180B53EC102BFAF78BFF9AED91
:10543000041B53EC112BFBF7AFF901D201200090B4
:1054400007EB470102E0D5E0CFE0C9E008EBC10877
:1054500099ED020B98ED021B51EC100B53EC112B44
:10546000FBF711F841EC100BB0EE491AF0EE691A97
:1054700000F0FEFFB0EE408AF0EE608A98ED001B6F
:1054800099ED000B53EC112B51EC100BFAF7FBFFCD
:1054900041EC100BB0EE491AF0EE691A00F0E8FF8B
:1054A000B0EE401AF0EE601A53EC182B51EC110BD1
:1054B000FAF748FF41EC100B01F002FEB0EE408A13
:1054C000F0EE608A98ED040B51EC180B53EC102BA6
:1054D000FAF738FF99ED041B53EC112BFBF75CF93D
:1054E00011D299ED040B51EC180B53EC102BFAF779
:1054F00029FF98ED041B53EC112BFBF74DF902D259
:105500000098401C009098ED020B9AED021B53ECA2
:10551000102B51EC110BFAF7B6FF41EC100BB0EE6B
:10552000491AF0EE691A00F0A3FFB0EE408AF0EEDF
:10553000608A98ED002B9AED000B53EC122B51EC86
:10554000100BFAF7A0FF41EC100BB0EE491AF0EE89
:10555000691A00F08DFF53EC182B51EC100BFAF781
:10556000F1FE41EC100B01F0ABFDB0EE408AF0EE25
:10557000608A98ED040B51EC180B53EC102BFAF7E2
:10558000E1FE9AED040B53EC102BFBF705F911D259
:105590009AED040B51EC180B53EC102BFAF7D2FEDA
:1055A00098ED040B53EC102BFBF7F6F802D20098A1
:1055B000401C00900098032812D198ED040B3B4842
:1055C0008DED000B00EB0B109AEC063B99EC060BF3
:1055D00098EC046BFDF754F80BF1010000F0FF0BA1
:1055E0007F1CBFB2072FFFF4BCAE6D1CADB2062D01
:1055F000FFF4AFAE761CB6B2052EFFF4A2AEBBF13F
:10560000000F08D000259FED2A0B284F84ED000BDA
:1056100084ED020B22E0012007B0BDEC108BBDE849
:10562000F08F00BF07EB051694ED000B96ED001B05
:1056300051EC100B53EC112BFAF784FEC4E9000176
:1056400096ED020B94ED021B53EC102B51EC110B59
:10565000FAF778FE6D1CEDB2C4E9020158465D45CB
:10566000E0D3FBF708F80E4646EC100B94ED001B58
:10567000054653EC102B51EC110BFAF77CFFC4E9F3
:10568000000146EC105B94ED021B53EC102B51EC27
:10569000110BFAF770FFC4E902010020BCE700001B
:1056A00030BF0020000000000000004000BD0020CE
:1056B000000000000000000038B50B4600920446D0
:1056C0000022802100F008F8002804D0606D40F02E
:1056D00020006065032038BD2DE9F0411D461746C6
:1056E0000E460446DDF8188008E0681C06D0FDF779
:1056F000CDFDA0EB0800A8420BD255B12068806810
:1057000036EA000030D00020B842EED10020BDE8DB
:10571000F0812068416821F0E00141606068B0F5E7
:10572000827F0BD1A068B0F5004F02D0B0F5806F3A
:1057300004D12068016821F040010160A06AB0F541
:10574000005F09D12068016821F4005101602068E0
:10575000016841F400510160012084F851000020EB
:1057600084F850000320D2E70120CDE71C4988428D
:1057700001D2002070471B49884201D201207047A6
:105780001949884201D2022070471849884201D243
:10579000032070471649884201D2042070471549FA
:1057A000884201D2052070471349884201D2062061
:1057B00070471249884201D2072070471049884239
:1057C00001D2082070470F49884201D20920704752
:1057D0000D49884201D20A2070470B207047000013
:1057E000004000080080000800C000080000010818
:1057F0000000020800000408000006080000080875
:1058000000000A0800000C0800000E0810B5002374
:1058100003E010C841F823405B1C9342F9D310BD4C
:105820002DE9F04186B0002716460D46044605973F
:10583000B0F1006F21D3A0071FD1FDF733FCDFF8D3
:105840006880D8F8001021F40071C8F800101749DA
:10585000204604EB86068C421BD20097FFF786FF9A
:105860000290012003900220049005A96846FDF7EC
:1058700085FB70B10EA000F0B7FD06B0BDE8F08169
:105880000023214602202A68FDF7CEFB18B9241D0B
:105890002D1DB442F4D3D8F8001041F40071C8F8BB
:1058A0000010FDF7B7FBE8E7003C02400000FF1FD7
:1058B000457261736520666C617368204572726F12
:1058C000720D0A00FFF716FB02F076F8FCE710B540
:1058D000FDF7D2FDBDE8104005F096BE30B593B09F
:1058E00030216846FAF716FD14210CA8FAF712FDCC
:1058F00019480025016841F080510160006800F0FE
:10590000805011901548016841F4804101600068A1
:10591000022400F4804011900120009000040190C6
:105920008001CDE9064004200890A820CDE90904B3
:1059300007200B906846FDF7D3FF0CA90F2081E8E4
:1059400031004FF4A0500F90E002109005210CA8F8
:10595000FDF7D8FE13B030BD403802400070004063
:105960001048016841F4700101600F48016841F07E
:10597000010101600C4A00210832116002680B4BE2
:105980001A400260031D0A4A1A60026822F480224B
:10599000026005480C3001600249580680390860F1
:1059A0007047000088ED00E000380240FFFFF6FE7F
:1059B0001030002410B512A000F016FD1CA000F05D
:1059C00013FD27A000F010FD31A000F00DFD0CA08C
:1059D00000F00AFD3AA13FA000F006FD41A145A05C
:1059E00000F002FD48A14AA000F0FEFC4CA24FA12D
:1059F00051A000F0F9FCBDE8104001A000F0F4BC9B
:105A00002B2D2D2D2D2D2D2D2D2D2D2D2D2D2D2DC8
:105A10002D2D2D2D2D2D2D2D2D2D2D2D2D2D2D2DB6
:105A20002D2D2D2D2D2D2D2D2D2D2D2B0D0A000045
:105A30007C202020202020202020204672656552D6
:105A4000544F532B4C7749502053797374656D2014
:105A500020202020202020202020207C0D0A000053
:105A60007C2020202020436F707972696768742839
:105A7000632932303139204F6E656D6F7265205465
:105A8000656B2E2E20202020207C0D0A00000000B7
:105A90007C2020202020202020202020416C6C20F1
:105AA0007269676874732072657365727665642EB7
:105AB00020202020202020202020207C0D0A0000F3
:105AC00053544D3332463430375A4754362D4445BB
:105AD000560000002050726F647563743A2025737D
