:020000040800F2
:1000000058E2012059020008335300081D48000837
:1000100031530008D30A0008F9630008000000000B
:100020000000000000000000000000009D0100082A
:10003000B51C000800000000F10100086759000825
:1000400073020008730200087302000873020008BC
:1000500073020008730200087302000873020008AC
:10006000730200087302000873020008730200089C
:10007000730200087302000873020008730200088C
:10008000730200087302000873020008730200087C
:10009000730200087302000873020008730200086C
:1000A000730200087302000873020008730200085C
:1000B000E55B0008F15B0008FD5B000873020008C7
:1000C000730200087302000873020008730200083C
:1000D0007302000869610008730200087561000876
:1000E000730200087302000873020008730200081C
:1000F000730200087302000873020008730200080C
:1001000073020008730200087302000873020008FB
:1001100073020008730200087302000873020008EB
:1001200073020008730200087302000873020008DB
:1001300073020008091D000873020008730200081A
:1001400073020008730200087302000873020008BB
:1001500073020008730200087302000873020008AB
:10016000730200087302000873020008730200089B
:100170007302000873020008730200080000000008
:100180007302000873020008DFF80CD000F064FC72
:1001900000480047FDA9000858E201202B4B1968D0
:1001A0000868B0E8F04F80F30988BFF36F8F4FF015
:1001B000000080F3118870470000000006480068C6
:1001C000006880F3088862B661B6BFF34F8FBFF353
:1001D0006F8F00DF00BF00BF08ED00E0DFF80C000C
:1001E000016841F470010160704700BF88ED00E0D4
:1001F000EFF30980BFF36F8F144B1A681EF0100FD6
:1002000008BF20ED108A20E9F04F106008B44FF0CD
:10021000500080F31188BFF34F8FBFF36F8F10F042
:10022000A9FC4FF0000080F3118808BC1968086829
:10023000B0E8F04F1EF0100F08BFB0EC108A80F34A
:100240000988BFF36F8F704700BF00BF44000020D4
:10025000EFF30580704700000648804706480047D6
:10026000FEE7FEE7FEE7FEE7FEE7FEE7FEE7FEE766
:10027000FEE7FEE7F9590008890100082DE9F05F63
:100280000546002092469B46884606468146402405
:100290001BE0284641464746224600F0BEFA534638
:1002A0005A46C01A914110D311461846224600F012
:1002B000A5FA2D1A67EB01084F46224601200021BE
:1002C00000F09CFA17EB00094E41201EA4F1010436
:1002D000DFDC484631462A464346BDE8F09F40EA07
:1002E00001039B0703D009E008C9121F08C0042AB4
:1002F000FAD203E011F8013B00F8013B521EF9D29B
:100300007047D2B201E000F8012B491EFBD27047C2
:100310000022F6E710B513460A4604461946FFF7D1
:10032000F0FF204610BD30B504460020034600E033
:100330005B1C934203D2E05CCD5C401BF8D030BD27
:100340002DE9FE4F804681EA0300C00F0C46009065
:1003500021F0004123F00045B8EB0200A94105D28D
:100360004046214690461C460B46024623F000407C
:10037000104347D0270DC7F30A00C3F30A51029078
:10038000401A019040286BDAC3F3130040F4801B3D
:100390000098924620B10023D2EB030A63EB0B0BCB
:1003A00001985946C0F14002504600F027FA06462F
:1003B0000D4650465946019A00F03FFA10EB0800EE
:1003C0006141002487EA115284EAE7731A4340D05E
:1003D000009A62B3019A012A4FEA075215DC001B0A
:1003E00061EB02014FF0004202EA0752CDE9004200
:1003F000001C41F5801132462B4600F076FA03B01E
:10040000BDE8F08F40462146F9E7001B61EB020191
:10041000001C41F5801300185B412018A2F500175D
:1004200047EB030140EAD570B6196D4111E06D0844
:100430004FEA360645EAC0754FEA0752001B61EBEA
:100440000201001C41F5801149084FEA30000019F3
:10045000514132462B4603B0BDE8F04F00F036BAAA
:100460000098012240000023D0EB020263EBE0730E
:10047000009821464FEAE074B8EB000061EB0401FC
:10048000E9E783F000435BE781F0004158E72DE99D
:10049000FE4F81EA030404F0004421F0004100947F
:1004A0004FF0000B23F0004350EA01045ED052EA03
:1004B00003045BD0C3F30A54C1F30A552C44A4F2DD
:1004C000F3340194A0FB0254C1F3130141F48011F1
:1004D000C3F3130343F4801301FB024400FB034EF8
:1004E000840A970A44EA815447EA8357A4FB0768C1
:1004F00002958D0A05FB07854FEA932C04FB0C54EB
:100500002705029D4FEA065847EA1637B5EB08055E
:100510006EEB070C870E920E47EA811742EA8312B0
:10052000A7FB0201B6EB0B0164EB00042B0D43EAC1
:100530000C335E1844EB1C50DA465146E7FB0201CF
:10054000C5F313044FEA0B3343EA14534FEA043262
:10055000019C43EA0603A4F10C040294009CCDE93B
:1005600000B400F0C2F903B0BDE8F08F00200146EE
:10057000F9E72DE9F04D81EA030404F0004B21F086
:10058000004514464FF0000A23F0004150EA0502EE
:1005900020D054EA01021DD0C5F30A570246C5F324
:1005A0001303C1F31300C1F30A5640F4801543F45A
:1005B0008013A7EB0608101BD64608F2FD3873EB34
:1005C000050002D308F1010801E092185B41B8F17F
:1005D000000F03DA00200146BDE8F08D00204FF443
:1005E0008011064684460EE0171B73EB050705D302
:1005F000121B63EB050306434CEA010C49084FEA62
:10060000300092185B4150EA0107EDD152EA030035
:1006100012D082EA040083EA0501084305D0101BCA
:10062000AB4106D20122002306E000224FF0004336
:1006300002E06FF0010253101AEB06004CEB085178
:1006400010EB0A0041EB0B01BDE8F04D00F03EB9A4
:100650000EB5C10F80EAE0700844CA07002140F2DD
:1006600033438DE80E000A460B4600F03EF903B016
:1006700000BD0EB540F2334102910021CDE90011D9
:100680000A460B4600F031F903B000BD3EB5CA176B
:10069000CB0F002450405140C0186141DA0740F2AE
:1006A00033430094CDE901232246234600F01DF98F
:1006B00003B030BD70B5C1F30A5201F0004500240B
:1006C000C1F3130140F2FF3341F480119A4201DA81
:1006D000002070BD40F233439A42A2F2334203DC61
:1006E000524200F09AF800E090402C43F1D0404292
:1006F00070BD70B5C1F30A5201F000450024C1F38A
:10070000130140F2FF3341F480119A4202DA0020D3
:10071000014670BD40F233439A42A2F2334203DCF9
:10072000524200F07AF801E000F068F82C43F0D073
:100730000023D0EB030063EB010170BD00F0004229
:1007400030F000400AD0C10D01F56071C0F3160011
:1007500042EA0151C2084007114370470020014698
:100760007047000030B5041E71F1000404DB4FF047
:100770000044404264EB0101141E73F1000405DBE8
:100780001C464FF00043524263EB04038B4208BF08
:10079000824230BD30B5041E71F1000404DB4FF01D
:1007A0000044404264EB0101141E73F1000405DBB8
:1007B0001C464FF00043524263EB0403994208BFCA
:1007C000904230BD01F0004330B421F0004150EAC6
:1007D000010206D00A0DA2F56072C1F31301002ACE
:1007E00002DC30BC00207047440F44EAC104C10061
:1007F000E01830BC00EBC25000F031B8202A04DB16
:10080000203A00FA02F1002070479140C2F1200323
:1008100020FA03F3194390407047202A04DB203A62
:1008200021FA02F00021704721FA02F3D040C2F110
:1008300020029140084319467047202A06DBCB1757
:10084000203A41FA02F043EAE07306E041FA02F38B
:10085000D040C2F120029140084319467047002958
:10086000A8BF7047401C490008BF20F00100704736
:1008700010B4B0FA80FC00FA0CF050EA010404BF96
:1008800010BC704749B1CCF1200421FA04F411FAEC
:100890000CF118BF012121430843A3EB0C01CB1D30
:1008A0004FEA00614FEA102042BF002010BC7047A1
:1008B00000EBC35010440029A4BF10BC7047401C7B
:1008C000490008BF20F0010010BC704710B5141E8D
:1008D00073F1000408DA401C41F1000192185B41F9
:1008E0001A4301D120F0010010BD2DE9F04D9246D0
:1008F0009B4611B1B1FA81F202E0B0FA80F22032E7
:100900009046FFF77BFF04460F4640EA0A0041EAA3
:100910000B0153465A46084313D0114653EA0100CF
:1009200019D0C8F140025046FFF777FF05460E4642
:10093000504659464246FFF761FF084305D0012063
:1009400004E020463946BDE8F08D0020054346EA24
:10095000E0762C4337430A986305E40AA0EB0800CD
:100960000022FD0A44EA47540A3002D5002001461D
:10097000E9E7010510196941DDE9084500196941F8
:10098000BDE8F04DA2E770B521F0004303430CD061
:10099000C1F30A550024D5EB040564EB0403D61714
:1009A000AD1AB34102DB0020014670BD201841EBB7
:1009B000025170BD2DE9F04D00231A461B1A8A41E1
:1009C00003DB00200146BDE8F08DC1F30A52C1F3FC
:1009D000130141F480154FF0000BD10702D100182C
:1009E0006D41521E0027044640F2FF11384601EBCC
:1009F000620A3E468046024600204FF48011FFF70F
:100A00000CFFC2197141BB1846EB0100B4EB030C9B
:100A100075EB000C04D3E41A65EB000517460E468F
:100A2000241908F101006D4180463428E3DDF919ED
:100A300046EB0600091BA84103D24FF0FF321346D4
:100A400001E0002213461BEB070046EB0A51BDE80C
:100A5000F04DFFF73BBF0000064C074D06E0E06895
:100A600040F0010394E8070098471034AC42F6D3F5
:100A7000FFF78EFB9C1F0108BC1F010870B58C1886
:100A800010F8015B15F0070301D110F8013B2A11A2
:100A900006D110F8012B03E010F8016B01F8016B8F
:100AA0005B1EF9D12B0705D40023521E0DD401F88B
:100AB000013BFAE710F8013BCB1A921C03E013F854
:100AC000015B01F8015B521EF9D5A142D8D3002089
:100AD00070BDFEE770B5094DFF22134605F580761F
:100AE00006E000BF10F8014B54402A5D5A40335DC8
:100AF000491EC9B2F6D243EA022070BD441B010868
:100B00002DE9F04F04462DED108BB0EE43AAF0EE28
:100B100063AAB0EE40CAF0EE60CA83B0B0EE45EA18
:100B2000F0EE65EAB0EE449AF0EE649AB0EE42DA86
:100B3000F0EE62DAB0EE41BAF0EE61BA9FEDFEFB84
:100B400053EC1A2B51EC1C0BFFF79BFC0746009152
:100B500053EC192B51EC1B0BFFF793FC894649EC26
:100B6000100B804653EC102B51EC100BFFF78FFC51
:100B700041EC180B009941EC107B53EC102B51EC1D
:100B8000100BFFF784FC53EC182BFFF7D9FB41EC5B
:100B9000100B06F095FAB0EE408AF0EE608A53EC46
:100BA0001A2B51EC1C0BFFF7DDFD0DD153EC192B6B
:100BB00051EC1B0BFFF7D6FD06D153EC1E2B51EC6D
:100BC0001D0BFFF7CFFD7DD053EC1E2B51EC1D0B01
:100BD000FFF7B6FB8A464AEC100B054653EC182B80
:100BE00051EC100BFFF7BEFD6DD24AEC105B51ECDF
:100BF000180B53EC102BFFF7BCFC9FEDD11B53ECF3
:100C0000112BFFF79DFB41EC100B51EC1D0B8DEDF3
:100C1000000B53EC102BFFF73AFC9DED000B41EC61
:100C20001D0B53EC102B51EC1E0BFFF730FC41EC6D
:100C30001E0B53EC1A2B51EC1C0BFFF793FD71D1DB
:100C400053EC192B51EC1B0BFFF78CFD6AD053ECC6
:100C50001F2B51EC180BFFF71AFC53EC182BFFF766
:100C600016FC41EC1C0B53EC182B51EC180BFFF746
:100C70000EFC41EC180B53EC1E2B51EC1E0BFFF736
:100C800006FC41EC1E0B53EC1D2B51EC1D0BFFF72A
:100C9000FEFB0E4646EC100B054653EC1E2B51ECAA
:100CA000100BFFF7EEFB53EC182BFFF749FB41EC61
:100CB000180B53EC1B2B51EC190BFFF7E2FB53EC19
:100CC000182B01E0FCE0E8E0FFF7E1FB53EC1C2B04
:100CD000FFF74FFC53EC1B2BFFF732FB41EC180BDB
:100CE00053EC1B2BFFF7CDFB41EC100B53EC102BFF
:100CF000FFF7CDFB41EC190B53EC1A2B51EC1A0BFF
:100D0000FFF7C2FB41EC100B53EC102BFFF7BFFBBE
:100D100041EC100B46EC115B53EC102B51EC110B1A
:100D200094E1FFE753EC1A2B51EC1C0BFFF71AFD73
:100D300006D053EC192B51EC1B0BFFF713FD7CD0A5
:100D400053EC1A2B51EC1C0BFFF70CFD76D053EC37
:100D5000192B51EC1B0BFFF705FDF7D053EC1A2BA9
:100D600051EC1C0BFFF790FB0F46054647EC1A0BA6
:100D700053EC1B2B51EC190BFFF783FB53EC1A2B95
:100D8000FFF7F7FB41EC1A0B53EC1A2B9FED6E0BA0
:100D900051EC100BFFF7EDFB41EC190B53EC1F2B43
:100DA00051EC180BFFF773FB53EC182BFFF76FFB9D
:100DB00041EC1F0B53EC182B51EC180BFFF767FBA2
:100DC00041EC180B53EC1E2B51EC1E0BFFF75FFB95
:100DD00041EC1E0B53EC1D2B51EC1D0BFFF757FB89
:100DE000884648EC100B064653EC1E2B51EC100BBA
:100DF000FFF747FB53EC182BFFF7A2FA41EC100B5F
:100E000047EC115B53EC102B51EC110BFFF73FFB40
:100E100053EC1F2BFFF7ADFB53EC1C2BFFF790FAA5
:100E200041EC180B51EC1C0B53EC182BFFF72CFB6F
:100E30000F46054647EC100B01E0F1E27EE253EC71
:100E40001A2B51EC100BFFF722FB53EC1B2BFFF777
:100E500077FA41EC1A0B53EC1B2BFFF712FB41EC1A
:100E6000100B53EC102BFFF712FB47EC105B41EC1F
:100E70001B0B53EC102B51EC100BFFF708FB41EC54
:100E8000100B48EC116B53EC102B51EC110BA7E13C
:100E9000FFF756FAC4E906014BE353EC1E2B51EC65
:100EA0001D0BFFF7EEFA8B4606464BEC100B05F0D8
:100EB000E1FA53EC182B51EC100BFFF76BFC05D249
:100EC000012003B0BDEC108BBDE8F08F4AEC105B45
:100ED00053EC182B51EC100BFFF744FC0AD04BECF1
:100EE000106B05F0C7FA53EC182B51EC100BFFF701
:100EF00039FC7DD14AEC105B53EC182B51EC100BF4
:100F0000FFF730FC75D14AEC105B51EC180B53EC39
:100F1000102BFFF72EFB9FED0A1B53EC112BFFF755
:100F20000FFA41EC100B51EC1D0B8DED000B53EC47
:100F3000102BFFF7ACFA0BE00000000000000040AF
:100F40007B14AE47E17A843F000000000000F0BF50
:100F50009DED000B41EC1D0B53EC102B51EC1E0BC7
:100F6000FFF795FA41EC1E0B42E200BF53EC192B40
:100F700051EC1B0BFFF7F6FB7DD053EC1F2B51EC14
:100F8000180BFFF784FA53EC182BFFF780FA41ECAB
:100F90001C0B53EC182B51EC180BFFF778FA41ECB3
:100FA000180B53EC1E2B51EC1E0BFFF770FA41ECA3
:100FB0001E0B53EC1D2B51EC1D0BFFF768FA0E4670
:100FC00046EC100B054653EC1E2B51EC100BFFF7B3
:100FD00058FA53EC182BFFF7B3F941EC180B53EC0C
:100FE0001B2B51EC190BFFF74CFA53EC182B01E0BB
:100FF000EAE146E1FFF74BFA53EC1C2BFFF7B9FA95
:1010000053EC1B2BFFF79CF941EC180B53EC1B2BFB
:10101000FFF737FA41EC100B53EC102BFFF737FAC0
:1010200041EC190B53EC1A2B51EC1A0BFFF72CFA6D
:1010300041EC100B53EC102BFFF729FA41EC110B8C
:1010400046EC105B53EC112B51EC100BFFF719FA27
:1010500053EC192BFFF715FA41EC100B06F030F8A2
:10106000B0EE409AF0EE609A53EC192B51EC1A0B4B
:10107000FFF707FA00E0C3E1C4E9000184ED028B49
:1010800053EC192B51EC1A0BFFF75AF9C4E9040180
:1010900084ED068B4DE200BF53EC1A2B51EC1C0B78
:1010A000FFF760FBF6D053EC192B51EC1B0BFFF74D
:1010B00059FBEFD053EC1A2B51EC1C0BFFF7E4F962
:1010C0000E46054646EC1A0B53EC1B2B51EC190B44
:1010D000FFF7D7F953EC1A2BFFF74BFA41EC1A0B39
:1010E00053EC1A2B1FED680B51EC100BFFF741FA74
:1010F00041EC190B53EC1F2B51EC180BFFF7C7F900
:1011000053EC182BFFF7C3F941EC1F0B53EC182BD2
:1011100051EC180BFFF7BBF941EC180B53EC1E2BED
:1011200051EC1E0BFFF7B3F941EC1E0B53EC1D2BDA
:1011300051EC1D0BFFF7ABF9884648EC100B074646
:1011400053EC1E2B51EC100BFFF79BF953EC182BB3
:10115000FFF7F6F841EC100B46EC115B53EC102B4B
:1011600051EC110BFFF793F953EC1F2BFFF701FA2A
:1011700053EC1C2BFFF7E4F841EC180B51EC1C0B63
:1011800053EC182BFFF780F90E4646EC100B054682
:1011900053EC1A2B51EC100BFFF779F953EC1B2B86
:1011A000FFF7CEF841EC1A0B53EC1B2BFFF769F954
:1011B00041EC100B53EC102BFFF769F946EC105B78
:1011C00041EC1B0B53EC102B51EC100BFFF75FF9AC
:1011D00041EC110B48EC107B53EC112B51EC100B34
:1011E000FFF74FF953EC1B2BFFF74BF941EC1B0BAF
:1011F00053EC192B51EC190BFFF749F99FEDCE1B5E
:1012000053EC112BFFF79CF841EC100B51EC1B0B2E
:1012100053EC102BFFF7ADF941EC100B05F050FF2C
:10122000B0EE40BAF0EE60BA53EC1B2B51EC180B49
:10123000FFF727F941EC100B53EC182B84ED000B52
:10124000FFF71FF953EC192BFFF721F953EC1A2B79
:10125000FFF776F8C4E9020153EC1B2B51EC180B95
:10126000FFF76EF841EC100B53EC182B84ED040BD8
:10127000FFF707F953EC192BFFF709F953EC1A2B79
:1012800006E64BEC106B05F0F5F853EC182B51EC1F
:10129000100BFFF767FA51D153EC1A2B51EC1C0BD2
:1012A000FFF760FA28D153EC192B51EC1B0BFFF719
:1012B00059FA21D053EC1E2B51EC1D0BFFF76AFAA3
:1012C00053EC192B51EC1B0B03D2FFF763FA03D23B
:1012D00009E0FFF75FFA06D284ED00AB53EC1D2B5B
:1012E00051EC1B0B6BE084ED00AB53EC1D2B51EC70
:1012F0001B0BFFF7C6F864E053EC1A2B51EC1C0BE8
:10130000FFF730FA2CD053EC192B51EC1B0BFFF7E5
:1013100029FA25D153EC1E2B51EC1D0BFFF73AFA9D
:1013200053EC1A2B51EC1C0B09D2FFF733FA09D2FC
:101330000FE000BFC4E9000184ED029BF9E0FFF774
:1013400029FA06D253EC1D2B51EC1C0BFEF7F8FFCB
:10135000F0E753EC1D2B51EC1C0BFFF792F8E9E77B
:1013600053EC1A2B51EC1C0BFFF7FCF92BD053EC70
:10137000192B51EC1B0BFFF7F5F924D0009953EC16
:101380001D2B41EC107B51EC100BFFF780F853EC58
:10139000182BFFF7EEF853EC1C2BFEF7D1FF49ECAE
:1013A000108BC4E9000153EC1D2B51EC100BFFF71F
:1013B0006EF853EC182BFFF7DCF853EC1B2BFEF701
:1013C000BFFFC4E90201B4E04AEC105B53EC182BF8
:1013D00051EC100BFFF7DEF97DD24BEC106B05F0F2
:1013E00049F853EC182B51EC100BFFF7BBF972D2F4
:1013F00053EC1A2B51EC1C0BFFF7B4F93FF4B6ADCC
:1014000053EC1A2B51EC1C0BFFF7ACF93FF444AE34
:1014100053EC192B51EC1B0BFFF7A4F97FF43CAEF6
:1014200053EC1F2B51EC180BFFF731F853EC182B32
:10143000FFF72DF841EC1B0B53EC182B51EC180B5C
:10144000FFF725F841EC180B53EC1E2B51EC1E0B4B
:10145000FFF71DF841EC1E0B53EC1D2B51EC1D0B3F
:10146000FFF715F80E4646EC100B054653EC1E2B05
:1014700051EC100BFFF705F853EC182BFEF760FF4B
:1014800041EC180B53EC1A2B51EC1C0BFEF7FCFF34
:1014900053EC182BFEF7FBFF53EC1B2BFFF769F8FF
:1014A00053EC1C2BFEF74CFF41EC180B53EC192BA3
:1014B00051EC190BFEF7E5FF41EC100B53EC102B30
:1014C000FEF7E5FF41EC1A0B53EC182B51EC1C0B0B
:1014D000FEF7DAFF00E02CE041EC100B53EC102B90
:1014E000FEF7D5FF41EC110B46EC105B53EC112BD2
:1014F00051EC100BFEF7C5FF53EC1A2BFEF7C1FFA2
:1015000041EC100B05F0DCFDB0EE40AAF0EE60AA55
:1015100084ED008B53EC1A2B51EC190BFEF7B1FF45
:10152000C4E9020184ED048B53EC1A2B51EC190B26
:10153000AEE40020C5E40000000000000000F03F21
:1015400070B5244C06460025A07830B101280CD097
:10155000022814D0032817D03AE0002006F07EFFBE
:10156000002006F03BFF0120A07000210F2006F0B4
:10157000ECFE1949A062084028D00220A070208DFE
:10158000400417D50320A0704FF4804200210F20A3
:1015900007F007F80021102006F0D7FEC0F309017C
:1015A00000220E48216306F004FF0C48C178EF29A1
:1015B00006D00CE00A4A00210F2006F0F2FF06E0F8
:1015C0004178B14203D10421A170007970BDA570AA
:1015D000002070BD7001002000D02724F8DD01201C
:1015E000009027242DE9F05F7B4C8046DFF8F491D2
:1015F0006078DFF8E8B1DFF8E8A1A9F1480504F167
:101600006306002790B1012818D0022820D00328B3
:1016100023D004283BD0052864D006286CD00728A6
:101620007BD008286FD009286ED0D3E0002006F0C8
:1016300015FF002006F0D2FE0120607000210F206F
:1016400006F083FEA06210EA0A007DD002206070DE
:10165000208D400479D5032060704FF48042002132
:101660000F2006F09EFF0021102006F06EFEC0F352
:1016700009015C4800224838216306F09AFEE878A8
:10168000AB2842D1697841453FD1042060700020E9
:10169000295C3154401C1E28FAD307F0F5FE02469F
:1016A000C9F804004C4800236B3007F0D6FE94F8CC
:1016B0002400B070BC204849F070002263311E2025
:1016C00006F09DFF00211E2006F0AAFF002006F074
:1016D000ADFE41F2883006F0C1FE022006F0F0FEB9
:1016E0000520607000210F2006F02FFEA06210EA96
:1016F0000A0067D006206070606A411C07D0401C59
:10170000606205E009E025E04FE0677062E0676233
:10171000208D400458D5072060704FF4814200218D
:101720000F2006F03EFF0021102006F00EFE00F014
:101730007F012C4800224838216306F03AFEE87801
:10174000CD28E2D1697801E03CE03DE04145DCD1C3
:10175000082060700020295C3154401C1E28FAD3F8
:10176000DE20F07007F0A3FE4D46C9F8080007F030
:101770008BFE6861184800236F30AA6807F06DFE81
:10178000154800237B306A6907F067FE1249002282
:1017900063311E2006F033FF00211E2006F040FFBB
:1017A000002006F08DFE0920607000210F2006F059
:1017B000CCFD00060ED5802200210F2006F0F1FEA0
:1017C00067700120BDE8F09F5A4600210F2006F007
:1017D000E8FE9AE70020F5E770010020009027243A
:1017E00000D0272440DE01202DE9F04FC64CC84D23
:1017F000DFF8189341F2883A2DED0A8B87B04FF449
:10180000814B002604F16308A5F14807227882B1D4
:10181000012A31D0022A39D0032A43D0042A63D0C6
:10182000052A7CD0062A7BD0072A7AD0082A79D0CC
:1018300052E000234246D6545B1C1E2BFBD3107093
:10184000517094F824009070AB20AF4988F80300E1
:10185000002263311E2006F0D2FE00211E2006F079
:10186000DFFE002006F0E2FD504606F0F7FD022004
:1018700006F026FE0120207000210F2006F065FDF5
:10188000A06210EA090028D002202070606A411C82
:1018900002D0401C606200E06662208D400415D5D5
:1018A000032020705A4600210F2006F07AFE002106
:1018B000102006F04AFD00F07F01954800224838CC
:1018C000216306F076FDF878BC280BD0914A002100
:1018D0000F2006F066FE2670002007B0BDEC0A8BD4
:1018E000BDE8F08F0420207000203A5C08F800204A
:1018F000401C1E28F9D307F0DAFD286007F0C4FD6C
:10190000E860002308F104002A6807F0A6FD7E487D
:1019100000237330EA6807F0A0FDCD2103E01DE04D
:1019200026E031E046E088F8031094F82400764978
:1019300088F80200002263311E2006F060FE0021BC
:101940001E2006F06DFE002006F070FD504606F0E9
:1019500085FD022006F0B4FD0520207000210F2037
:1019600006F0F3FCA06210EA0900B6D00620207051
:10197000606A411C02D0401C606200E06662208DFB
:101980004004A3D5072020705A4600210F2006F0FE
:1019900008FE0021102006F0D8FC00F07F015C4812
:1019A00000224838216306F004FDF878DE288DD146
:1019B00008202070002140467A5C4254491C1E29B0
:1019C000FAD36946381D07F03BFD514801A940385C
:1019D00007F036FD4E4802A93C3807F031FD4C486F
:1019E00003A9383807F02CFD494805A9303807F01D
:1019F00027FD00982860019868600298A860039805
:101A0000E86007F054FD286105996961884607463A
:101A1000E96828688946081AFEF72BFE41EC1B0B83
:101A2000A86841468046081AFEF723FE41EC1A0BCF
:101A3000A7EB0900FEF71DFE41EC180B6968A8EB47
:101A40000100FEF716FE41EC190B53EC1A2B51EC7A
:101A50001B0BFEF775FC53EC182BFEF771FC53ECD7
:101A6000192BFEF76DFC41EC1C0B53EC192B51ECC0
:101A7000180BFEF70CFD41EC180B53EC1A2B51EC34
:101A80001B0BFEF704FD53EC182BFEF7FAFC53EC8E
:101A90001C2BFEF76EFDFEF72CFEFEF7F7FD9FED0B
:101AA0001E1B53EC112BFEF7F2FC41EC100B9FEDCB
:101AB0001C1B84ED100B53EC112BFEF7E8FC41ECE2
:101AC000100B84ED120BFEF77DFE00EE100A0E489F
:101AD00058304178007806F0F5FA94ED121B51EC7D
:101AE000100B53EC112BFEF7CFFC41EC100B9FEDCC
:101AF0000E1B84ED140B53EC112BFEF7C8FCFEF704
:101B0000D9FDE0622670E8E67001002000D02724AD
:101B100040DE012000902724FA48CE3B1835B13D25
:101B20000000001319DDB141000000000000594021
:101B30002DE9F843424C844600236079DFF80481A4
:101B4000414F01261D4650B1012830D0022833D024
:101B500003283BD0042845D0052869D063E03848E5
:101B6000A5716330C5545B1C1E2BFBD380F800C0ED
:101B7000417094F824108170EF21C17002713049D6
:101B8000002263311E2006F03AFD00211E2006F0DF
:101B900047FD002006F04AFC002006F091FC41F2CF
:101BA000707006F05BFC072005F0BAFD667100203E
:101BB00006F014FC0220607100210F2006F0C5FB26
:101BC0002249A06208402FD003206071606A411C46
:101BD00002D0401C606200E06562208D400415D593
:101BE000042060714FF4814200210F2006F0D9FCDF
:101BF0000021102006F0A9FB00F07F01002212480E
:101C0000216306F0D6FBF878FF280FD0424600216A
:101C10000F2006F0C6FCA079072801D9657102E003
:101C20006671401CA0710020BDE8F883052060713A
:101C30006946381D07F004FC65710098F4E7000060
:101C40007001002000902724F8DD012000D0272417
:101C500070B50024164B25461D55641C1E2CFBD365
:101C600003F8010B124803F8011B633890F82400B5
:101C700003F8020BFF2003F8010C00201A54120A8B
:101C8000401C0428FADB002209491E2006F0B7FC9C
:101C900000211E2006F0C4FC002006F0C7FB41F224
:101CA000883006F0DBFB002006F00AFC002070BD47
:101CB000D301002070470000064908B509684FF4B9
:101CC000FA52B1FBF2F14143009100BF491E00916D
:101CD000FBD208BD4000002038B50446006800F57E
:101CE0008050816941F480118161206800F5805045
:101CF000806900900120FFF7DFFF2068009900F560
:101D00008050816138BD0000014800F04EBE0000E7
:101D10007C3500202DE9F041044621B14FF40060EC
:101D2000E060C000A060E0690025002861D028467E
:101D30002368402619683A4A1140D4E902273A43F9
:101D4000024342F4007008431860206807680120CD
:101D500000F05EFD206807602068466020684668E5
:101D6000012000F055FD20684660206885602068ED
:101D7000C560216888694FF64172104040F08000CC
:101D8000886120688669012000F042FD2068866134
:101D90002068C5612068C569012000F039FD206810
:101DA000C561226802F5805290691E4908401E49AB
:101DB00001439161206800F580508569012000F0A1
:101DC00027FD206800F5805085612068174900F5DF
:101DD00080500160206800F580500568012000F007
:101DE00017FD206800F580500560A069012803D028
:101DF00009E04FF480609BE7206800F58050C169DE
:101E00000B4A1143C16160690A4982880A640278F9
:101E1000D0F8010042EA00204864BDE8F0810000EB
:101E20000F8120FF233FDEF8040020028020C10242
:101E300040000100008002404109890001F1E021D9
:101E4000D1F8001100F01F0201209040014201D0A2
:101E5000012070470020704770470000002229B120
:101E600001291AD002291BD04FF440720E490B6889
:101E700023F440730B600B6813430B600A6822F075
:101E8000F8020A600A68022303EBC00002430A60FA
:101E9000086840F48030086070474FF48072E5E7CE
:101EA0004FF40072E2E70000103C02401348016862
:101EB00089050FD5016821F400710160016841F4C2
:101EC00000610160016821F400610160016841F472
:101ED00000710160016849050FD5016821F4806136
:101EE0000160016841F480510160016821F4805172
:101EF0000160016841F4806101607047003C02406C
:101F000008490A6822F440720A600A6842F0040232
:101F10000A600A684FF4803343EA002002430A60F3
:101F200070470000103C0240064A136823F44073D7
:101F3000136013681360136843F0010313600170AA
:101F400070470000103C0240084910B50C6824F4AA
:101F500040740C600C6844F440740C600C6844F0ED
:101F600001040C600260436010BD0000103C0240A0
:101F7000074A136823F440731360136843F48073B3
:101F80001360136843F00103136001807047000081
:101F9000103C0240074A136823F44073136013682F
:101FA00043F400731360136843F00103136001608E
:101FB00070470000103C024017490868C2061748E5
:101FC00005D5C26942F01002C26110220A600A6897
:101FD000920605D5C26942F00802C26120220A6059
:101FE0000A68520605D5C26942F00402C261402265
:101FF0000A600A68120605D5C26942F00202C2618F
:1020000080220A600A68920705D5C26942F0200260
:10201000C2610220086070470C3C0240983B0020DF
:1020200070B5114904460020C86101F013F9064655
:102030000E4D09E0601C07D024B101F00BF9801BA4
:10204000A04201D9032070BD2868C003F2D42868DB
:10205000C00701D001202860286810F0F200F2D0FB
:10206000FFF7AAFF012070BD983B00200C3C024006
:102070002DE9F05FCC225149514803F013FC4F4A3F
:10208000DFF840C1DFF840811088ACF8000090888C
:10209000DFF838A1A8F800001089DFF83491AAF819
:1020A00000009089DFF82CB1A9F80000108AABF885
:1020B0000000494F002000BF02EB8001898A27F809
:1020C0001010401C80B20328F6D3444E002100209B
:1020D00006EBC10300EB810402EB8404248C23F89B
:1020E0001040401C80B20428F4D3491C89B2062950
:1020F000EDD33B4B12F8800F3A4C187010795870A2
:10210000107A9870107BD870107C2070107D6070F1
:10211000107EA070107F344DE07092F8200028707F
:1021200092F82400687092F82800A87092F82C00A9
:10213000E870B2F80C0181B22C48AB2901803BD089
:10214000AB2101800720ACF800004FF0010C00210A
:10215000A8F800C0A9F80010ABF80010AAF8001009
:102160004FEA010027F81010401C80B20328F9D371
:102170000022002006EBC20727F81010401C80B296
:102180000428F9D3521C92B2062AF2D3C020187048
:10219000A8225A7083F802C07926DE70FF232370CC
:1021A0006370A370E17028706A70A97085F803C02D
:1021B000BDE8F05F00F01CB8BDE8F09F08DC01202E
:1021C000000003081C0200201E0200207C010020E9
:1021D0007E01002080010020A401002098DD012064
:1021E00020000020240000202800002020020020E1
:1021F000F0B42B48304A01882A4801602A490988EE
:1022000041602A490988816029490988C1602949B2
:1022100009880161002100BF32F8113000EB810410
:10222000491C89B263610329F6D3244C00220021A2
:1022300004EBC20301EB820633F8115000EB860673
:10224000491C89B235620429F4D3521C92B2062A81
:10225000EDD31B490A7840F8802F4A7842608A788B
:102260008260C978C16017490A7802614A78426180
:102270008A788261C978C16113490A7802624A7812
:1022800042628A788262C978C1621049CC22098888
:10229000C0F80C11F0BC03490D4803F00DBB000061
:1022A0001C02002008DC01201E0200207C0100200E
:1022B0007E01002080010020A401002098DD012083
:1022C0002000002024000020280000202002002000
:1022D000000003082DE9F04F80462DED108BB0EE85
:1022E000479AF0EE679AB0EE40CAF0EE60CA99B035
:1022F000B0EE46BAF0EE66BAB0EE45AAF0EE65AAC8
:10230000B0EE44DAF0EE64DAB0EE43EAF0EE63EAFF
:10231000B0EE42FAF0EE62FAB0EE418AF0EE618A77
:1023200053EC192B51EC1C0BFEF7B1F841EC100BE0
:1023300053EC1F2B8DED160B51EC190BFEF7A7F884
:1023400041EC100B019107468DED140B53EC1A2B49
:1023500051EC1C0BFEF79BF841EC100B53EC1A2BC5
:102360008DED120B51EC1F0BFEF791F88B464BECE9
:10237000100B06468DED100B53EC1E2B51EC1B0B76
:10238000FEF785F88A464AEC100B05468DED0E0BDC
:1023900053EC1D2B51EC1E0BFEF779F8894649ECE6
:1023A000100B04468DED0C0B53EC182B51EC1B0B52
:1023B000FEF76DF841EC100B53EC1D2B8DED0A0B65
:1023C00051EC180BFEF763F89DED0A0B53EC102B44
:1023D000FEF757F89DED0C0B53EC102BFEF751F860
:1023E0009DED0E0B53EC102BFDF7AAFF9DED100B8E
:1023F00053EC102BFDF7A4FF9DED120B53EC102BAB
:10240000FEF73FF89DED140B53EC102BFEF739F857
:102410009DED160B53EC102BFDF792FF41EC100BCA
:1024200053EC1A2B8DED080B4AEC105B51EC100BA2
:10243000FEF72DF841EC100B53EC192B8DED0A0B28
:1024400049EC104B51EC100BFEF721F841EC100B4E
:1024500053EC1A2B8DED120B51EC1B0BFEF717F8FA
:1024600053EC182BFEF713F841EC100B53EC192B1F
:102470008DED100B51EC1D0BFEF709F853EC182BEA
:10248000FEF705F841EC110B53EC1E2B8DED0E1BE6
:1024900051EC1C0BFDF7FBFF0D4645EC100B044601
:1024A00053EC192B51EC100BFDF7F1FF41EC100B25
:1024B00053EC182B8DED0C0B019941EC107B51EC7A
:1024C000100BFDF7E4FF41EC100B53EC1A2B8DEDD4
:1024D000060B45EC104B51EC100BFDF7D8FF41EC0F
:1024E000100B53EC182B8DED000B4BEC106B51ECDB
:1024F000100BFDF7CCFF9DED000B53EC102BFDF7FF
:10250000C0FF9DED060B53EC102BFDF7BAFF9DEDC0
:102510000C0B53EC102BFDF713FF9DED0E1B53EC32
:10252000112BFDF70DFF9DED100B53EC102BFDF75C
:10253000A8FF9DED120B53EC102BFDF7A2FF9DEDB4
:102540000A0B53EC102BFDF7FBFE9DED080B53EC33
:10255000102BFEF70EF8C8E9020153EC1B2B51ECCF
:102560001D0BFDF78EFF8A4604464AEC1D0B53EC0B
:102570001E2B51EC180BFDF784FF064653EC1D2B68
:102580000791FDF784FF41EC1E0B53EC1F2B51EC20
:102590001C0BFDF779FF8946054649EC1D0B53ECF2
:1025A000192B51EC1A0BFDF76CFF8B464BEC100B03
:1025B000074653EC1D2B51EC100BFDF768FF53EC55
:1025C0001E2BFDF7BDFE41EC1D0B07994AEC1A4B83
:1025D00041EC106B53EC1C2B51EC100BFDF757FF2B
:1025E00053EC1A2BFDF753FF4BEC107B41EC1C0B0B
:1025F00049EC1A5B53EC1B2B51EC100BFDF747FF1A
:1026000053EC1A2BFDF743FF4AEC104B41EC1B0B2C
:1026100049EC1A5B53EC192B51EC100BFDF737FF0B
:1026200053EC1A2BFDF733FF4AEC104B41EC1A0B1D
:1026300049EC195B53EC182B51EC100BFDF727FFFD
:1026400053EC192BFDF723FF53EC1A2BFDF719FF61
:1026500053EC1B2BFDF774FE53EC1C2BFDF770FEA7
:1026600053EC1D2BFDF785FFC8E9000119B0BDEC47
:10267000108BBDE8F08F000031B505462DED100B35
:1026800057482DED108BB0EE47CAF0EE67CAB0EE9A
:1026900046DAF0EE66DAB0EE45EAF0EE65EAB0EE64
:1026A00044FAF0EE64FAB0EE429AF0EE629AB0EEBE
:1026B00041AAF0EE61AAB0EE40BAF0EE60BA9DED2C
:1026C000248B9DED163BFEF71BFA4548B0EE485AA9
:1026D0002030F0EE685AB0EE4C4AF0EE6C4AB0EEA4
:1026E0004D3AF0EE6D3AB0EE492AF0EE692AB0EEBE
:1026F0004A1AF0EE6A1AB0EE4B0AF0EE6B0AFEF7D9
:10270000FFF93748B0EE485A4030F0EE685AB0EE64
:102710004C4AF0EE6C4AB0EE4D3AF0EE6D3AB0EE47
:102720004E2AF0EE6E2AB0EE4F1AF0EE6F1A9DEDC3
:10273000160BFEF7E5F92A4C04F1600094EC100B3F
:10274000FFF7C8FD04F1400194EC080B04F17000A0
:1027500091EC084BFFF7BEFD04F18000203494ECAF
:10276000100BFFF7B7FD403494ED040B94ED001B04
:1027700053EC102B51EC110BFDF7E2FD94ED081B0F
:1027800053EC112BFDF7DCFD41EC180B85ED008BB4
:1027900094ED061B94ED020B53EC112B51EC100B36
:1027A000FDF7CEFD94ED0A1B53EC112BFDF7C8FD90
:1027B0009FED0CAB41EC190B53EC1A2B51EC180BA1
:1027C000FDF7D7FEC5E9000153EC1A2B51EC190BAC
:1027D000FDF7CFFEC5E90201BDEC108B11B030BD95
:1027E000E89C0120000000000000084090F835102F
:1027F000022903D08021416501207047052180F81E
:1028000035100068016821F0010101600020704767
:1028100070B5044600F01EFD0546601C02D0044859
:102820000078044400F016FD401BA042FAD370BDAE
:10283000340000202DE9F04390F845400025012C9C
:102840000DD04FF0010C80F845C0022480F84440C0
:1028500044F2F4574FF000495E1E816217E00220F7
:10286000BDE8F08301EB4514C4F80090C5EBC51832
:1028700008EB480802EB8808C4E90178B54204D2A5
:1028800004F12008C4F80C8000E0E1606D1C9D425A
:10289000E8D3026802F58052D16080F844C000217C
:1028A00080F845100846DBE72DE9F043914690F8A3
:1028B00045200024012A0AD0012680F84560022222
:1028C00080F844204FF4801C5D1EC1621BE0022092
:1028D000BDE8F08301EB4412C2F800C0C4EBC4179A
:1028E00007EB470809EB88079760C7691FB91768A6
:1028F00047F440071760AC4203D202F12007D760CB
:1029000000E0D160641C9C42E4D3026802F580526E
:10291000116180F84460002180F845100846D7E72F
:10292000704730B590F845100023012908D00122E6
:1029300080F84520022180F844100024816A1AE0C2
:10294000022030BD0D685B1CC5F30125022D0AD0A5
:102950000D6815F4407F09D04163836B5B1C836372
:10296000012B12D012E08263016302E0856B6D1CC3
:102970008563C96881620D68002D01DB042BE1D3FA
:1029800000F8442F4470012030BD01630B68C3F38D
:102990000D431B1FC363036B9B680364C96840F846
:1029A000281F02774477002030BD70B504460068C8
:1029B00000F5805041694FF0000549064FF00106CF
:1029C00008D5204600F0B4F92068402100F5805079
:1029D000416109E04069C0070AD0204600F074FA5E
:1029E000206800F58050466184F8446084F84550C2
:1029F00020684FF4803100F580504161206800F577
:102A00008050406900040CD52046FFF789FF2068FC
:102A10004FF4004100F58050416184F8446084F82F
:102A2000455070BD2DE9FC474FF000060400B1464B
:102A3000009603D094F8440018B107E00120BDE8E7
:102A4000FC8784F84560204600F0E2F8664801689B
:102A500041F480410160006800F4804001906348C7
:102A6000016821F4000101600168226A11430160DC
:102A7000206800F58050016841F00101016000F01C
:102A8000E9FB05464FF4FA7709E000BF00F0E2FBEE
:102A9000401BB84203D9032004F8440F67E02068C4
:102AA00000F580500068C007F0D12068006920F070
:102AB0001C0500F05DFE4E494E4A0144914202D28F
:102AC00045F0080516E04C494C4A0144914202D2B7
:102AD00045F00C050EE04A494A4A0144914209D3A7
:102AE000494908444949884202D245F0040501E0B9
:102AF00045F01005206805614FF400420021204692
:102B000000F0E4F90125A8BBFF20FFF781FE606813
:102B100088B300F09FFB804641F288376A46012166
:102B2000204600F0C3F800F095FBA0EB0800B84287
:102B300017D800984007F1D54FF480520021204665
:102B400000F0C4F9B0B900F085FB80466A46012167
:102B5000204600F0ABF800F07DFBA0EB0800B84287
:102B60000AD901212046FFF7D5F804F8445F032075
:102B7000667064E724E018E000988006E6D56A46AF
:102B80001021204600F092F8D0B90098410703D5F3
:102B90004FF40061E16000E0E660800701D5A660C7
:102BA00019E04FF48040A06015E0E068A168C0081B
:102BB00040EA510082B20021204600F087F930B18E
:102BC00001212046FFF7A6F884F8445036E740F686
:102BD000FF70FFF71DFE49462046FFF79BF884F87B
:102BE000445000202BE700004438024004380140E4
:102BF00000D3CEFEC0E1E40040F1E9FD40787D0164
:102C000000796CFC005A6202001F0AFA80F0FA0296
:102C1000F0B50068204987B088423BD11F480024A6
:102C2000016841F000710160016801F000710591D7
:102C3000016841F080610160016801F080610591E7
:102C4000016841F0006101600068022500F0006049
:102C500005903220CDE9000502AA03260B2782E861
:102C6000D00069460E4800F017FA8620CDE900052D
:102C700002AA694682E8D0000A4800F00DFA4FF433
:102C8000D040CDE9000502AA694682E8D000064896
:102C900000F002FA07B0F0BD008002403038024078
:102CA0000008024000000240001802402DE9F047F1
:102CB000044690F84400914682281DD0822084F872
:102CC0004400226810694FF6FF7500F01C03208A4B
:102CD00005EAC02018434FF4F86303EA8111014369
:102CE00021F0020040F00105156100F0B3FA06463C
:102CF00001274FF4803810E00220BDE8F08700BFC4
:102D000000F0A8FA801B404505D304F8447F00205A
:102D100060700320F1E720680569E807F0D12068BA
:102D2000406981B2C9F8001084F844700020E4E7DB
:102D30000148006808F0B4BC2C000020F8B5044637
:102D400090F84500012839D0012584F8455002202B
:102D500084F8440020680026016841F00801016001
:102D60002068006800902846FEF7A6FF21680098BA
:102D700008602068016841F0040101602068006873
:102D800000900120FEF798FF216800980860204617
:102D9000FEF7A2FF206800F58050816941F40051E0
:102DA0008161206800F58050816941F002018161F4
:102DB00084F8445084F845600020F8BD0220F8BD36
:102DC000F0B590F845200023012A11D0012780F8A2
:102DD0004570022280F84420002459B1C66A326846
:102DE000002A0ADA122100F8441F44700120F0BDC5
:102DF0000220F0BD00F8447FF7E740F2F455A94205
:102E00000BD9B1FBF5FCB1FBF5F205FB1C1CBCF1C9
:102E1000000F00D0521C012A43D1326842F04052C8
:102E20003260C26AC1F30C015160C16A0A6842F0A3
:102E300000420A60C16AC968C16234E0D6F800C0C5
:102E40002CF0405CC6F800C033B9C66AD6F800C0A2
:102E50004CF0805CC6F800C0C66A7560561EB3426E
:102E600014D1C66AD6F800C04CF0005CC6F800C0A9
:102E7000C2F10106C6EBC61606EB4606D0F82CC01A
:102E800001EB8606C6F30C06CCF80460C66AD6F8D9
:102E900000C04CF0004CC6F800C0C66A5B1CF66867
:102EA000C6629342CAD3016801F580514A6952074C
:102EB00005D504224A61016801F580514C6000F893
:102EC000447F44700020F0BD704700002DE9F041C0
:102ED000044690F8440042281ED0422084F8440062
:102EE000236818694FF6FF7600F01C05208A06EA71
:102EF000C02028434FF4F86505EA8111014390B2E0
:102F000041F0030558612068056100F0A3F9064609
:102F100001274FF4803810E00220BDE8F08100BFA7
:102F200000F098F9801B404505D304F8447F002049
:102F300060700320F1E720680569E807F0D184F8A4
:102F40004470EAE72DE9F047044622480F46017E27
:102F500001290AD00121804601764CF250394846B9
:102F6000FFF75EF8020003D02FE00220BDE8F087F3
:102F70004FF0FF3038602068174D012801D0A66857
:102F80001CE0207C6168FEF7BBFF4846FFF748F86D
:102F90000246286820F00400286014E0217C3046B6
:102FA000FEF75CFF4846FFF73BF80200286820F078
:102FB000FA00286001D03E6005E0761CD4E90210DA
:102FC0000844B042EAD8FEF771FF002188F81810D3
:102FD0001046CBE7983B0020103C024003480168B4
:102FE00041F000410160002070470000103C0240A9
:102FF0002DE9F0471B4E05461446307E1F46894694
:10300000012808D0012030764CF250384046FFF7B6
:1030100007F818B114E00220BDE8F0879DB1012D3A
:1030200016D0022D19D022463B464846FEF78CFFAB
:103030004046FEF7F5FF0C490A6822F001020A60DB
:1030400000213176E8E7E1B24846FEF76DFFEFE791
:10305000A1B24846FEF78CFFEAE721464846FEF754
:1030600099FFE5E7983B0020103C0240074900200B
:103070000A68002A09DA054A054B0C3A1360054B29
:1030800013600968002900DA01207047103C0240F3
:1030900023016745AB89EFCD2DE9F84FDFF87CB10F
:1030A00000224FF001084FF0030A4FF00F090BF117
:1030B000040E00BF0B6808FA02F42340A3426ED14D
:1030C0004D68022D01D0122D0ED1D50800EB850CD4
:1030D000DCF820505607F70E09FA07F6B5430E69DB
:1030E000BE402E43CCF82060066855000F790AFADE
:1030F00005FC07F0030726EA0C06AF4037430760DC
:103100004E68012E05D0022E03D0112E01D0122EB2
:103110000ED18668CF6826EA0C06AF403743876039
:103120004668A6430C79C4F30014944034434460C9
:10313000C6688C6826EA0C06AC403443C4604C6810
:10314000E40065D5364C256845F480452560246843
:1031500022F0030504F480440094324C2E19D6F872
:10316000084895072F0F09FA07F5AC432E4DA842E2
:1031700001D1002524E02D4DA84201D101251FE0F9
:103180002B4DA84201D102251AE02A4DA84201D1B7
:10319000032515E0284DA84202D1042510E037E0B0
:1031A000264DA84201D105250AE0254DA84201D1AE
:1031B000062505E0234DA84201D1072500E008259A
:1031C000BD402543C6F80858DBF800405D464E6810
:1031D0009C43F60300D51C432C60DEF80040754686
:1031E0004E689C43B60300D51C432C600B4D08353C
:1031F0002C684E689C43F60200D51C432C60074D9A
:103200000C352C684E689C43B60200D51C432C60DC
:10321000521C102AFFF44EAFBDE8F88F003C01406D
:1032200044380240003001400000024000040240E7
:1032300000080240000C024000100240001402404E
:1032400000180240001C02400AB181617047090465
:10325000FBE7000001488068704700003400002050
:1032600070B5040004D094F83D00002510B106E0CC
:10327000012070BD84F83C50204600F075F82420F1
:1032800084F83D002068016821F00101016000F030
:1032900075FA33492268B0FBF1F15160314A636835
:1032A000934206D94FF4967359434FF47A73B1FBA6
:1032B000F3F12368491C1962616891420BD84900F7
:1032C000B0FBF1F2C2F30B02042A01D2042019E090
:1032D000B0FBF1F016E0A3689BB301EBC10202EB77
:1032E0000112B0FBF2F242F48042120530D04BB32F
:1032F00001EBC10202EB0111B0FBF1F040F48040A0
:1033000040F400402168C861D4E9070108432168FE
:103310000860D4E90310084321688860D4E90501F6
:1033200008432168C8602068016841F0010101601C
:103330002564202084F83D00256384F83E50002059
:1033400070BD00E006E001EB4102B0FBF2F2CCE719
:103350000120D7E701EB4101B0FBF1F0D0E700001D
:1033600040420F00A086010010B586B0044614212B
:103370006846FCF7CDFF14492068884221D11348E4
:10338000016841F0020101600068694600F0020036
:1033900005904FF44070009012200190012002909F
:1033A00003200390042004900948FFF775FE0748A6
:1033B0001030016841F400110160006800F4001051
:1033C000059006B010BD00000054004030380240A7
:1033D000000402400248816802781144816070470D
:1033E000340000200B4810B5016841F40071016001
:1033F000016841F480610160016841F480710160FD
:10340000032000F071F80F2000F006F800F024F817
:10341000002010BD003C024070B50D4D04464FF435
:103420007A712878B1FBF0F00A490968B1FBF0F035
:1034300000F01FFE48B9102C07D200222146501E72
:1034400000F032F800206C6070BD012070BD0000FB
:1034500034000020400000200C4882B0016841F494
:1034600080410160006800F4804000900748001F20
:10347000016841F0805101600068002200F0805036
:1034800000900F21901E02B000F00EB844380240A8
:1034900000F01F02012191404009800000F1E0206E
:1034A000C0F8001170470000F0B40E4B1B680C46CA
:1034B000C3F30223C3F10705042D00D90425191D08
:1034C000072901D2002300E0DB1E012606FA05F1E0
:1034D000491E214099409E40761E16403143F0BC63
:1034E00001F028BF0CED00E0064900F00702086873
:1034F0004FF6FF03184040EA0220034A10430860D9
:10350000704700000CED00E00000FA05F0B58BB04C
:1035100004004FF0000556D0032084F8B90320467C
:1035200000F054F8206802F029FF04F1100128226D
:103530000F466846FCF7D3FE94E80F0002F020FE29
:103540000021206802F042FF01260020C5EBC501E2
:1035500004EB810181F8396001F8385FCD80C870D3
:103560008860C8606D1C48610F2DEFD300214FF4B7
:10357000827300BFC1EBC10204EB820203EB810541
:1035800082F8F90182F8F811D18782F8FB01C2F8BC
:103590000002C2F80402C2F80C0222685051491C11
:1035A0000F29E7D3282239466846FCF798FE94E8AD
:1035B0000F0002F043FE84F8B963206802F032FE87
:1035C00000200BB0F0BD0120FBE7000010B586B075
:1035D000044614216846FCF79BFE2068B0F1A04F1A
:1035E00027D115480021026842F0010202600068FC
:1035F00000F0010005904FF4C05000900220CDE98A
:103600000101032003900A20049069460B48FFF74C
:1036100043FD0948001D016841F080010160064832
:103620001430016841F480410160006800F480407A
:10363000059006B010BD0000303802400000024086
:103640002DE9F0470E46050065D0DFF81481D8F863
:103650000000F7B200F00F00B04207D288F8007007
:10366000D8F8000000F00F00B04254D128683D4C5B
:10367000810712D5400703D5206840F4E050206050
:103680002878000703D5206840F460402060206857
:10369000A96820F0F000084320602878C0072DD0EA
:1036A000304968680839012812D0022813D003284D
:1036B00011D00968890700292DDA216821F003015A
:1036C00001432160FFF7C6FD814641F2883A0EE0D2
:1036D00009688903EFE709688901ECE7FFF7BAFD9C
:1036E000A0EB0901514502D90320BDE8F08720680D
:1036F000696800F00C00B0EB810FEFD1D8F8001032
:10370000404601F00F01B14207D90770006800F090
:103710000F00B04201D00120E7E72878400705D527
:103720002068E96820F4E05008432060287800070A
:1037300006D52068296920F4604040EAC100206075
:1037400000F03CF82168084AC1F30311515CC840FD
:10375000064908600F20FFF75FFE0020C5E7000064
:10376000003C024008380240B41601084000002026
:1037700001480068704700004000002004480549E7
:1037800000680968044AC1F38221515CC84070474F
:103790004000002008380240C416010804480549CA
:1037A00000680968044AC1F34231515CC84070475F
:1037B0004000002008380240C4160108154810B522
:1037C000006810F00C02144813D04110042A0FD0E6
:1037D000082A0ED10F4C241F2268236802F03F02F2
:1037E0005B0207D52068C0F38810A0FB010106E04A
:1037F000084610BD2168C1F38811A1FB0001002318
:10380000FCF73CFD2168C1F30141491C4900B0FBB4
:10381000F1F010BD083802400024F4002DE9F84F03
:10382000050076D02878DFF8F8B2BE4CC00749D042
:10383000DBF800105846C1F38101012908D0006867
:10384000C0F3810002280AD1201D0068400206D57D
:103850002068800336D568680028E2D032E06868C6
:10386000B0F5803F10D0B0F5A02F206810D020F424
:1038700080302060206820F4802020606868A0B13B
:10388000FFF7E8FC06460CE0206840F48030F4E7DF
:1038900040F480202060F7E7FFF7DCFC801B642801
:1038A00073D820688003F7D50CE0FFF7D3FC0646F9
:1038B00005E000BFFFF7CEFC801B6428F0D820682D
:1038C0008003F7D42878DFF8608280074FF0000982
:1038D0003ED5DBF80010584611F00C0F09D00068F7
:1038E000C0F3810002280BD18D48001F0068400200
:1038F00006D42068800715D5E868012809D111E0B1
:10390000E868B8B10120C8F80000FFF7A3FC06463C
:1039100005E002E1FFF79EFC801B0228C0D820686A
:103920008007F7D52068296920F0F80040EAC10037
:1039300020600DE0C8F80090FFF78CFC064604E01C
:10394000FFF788FC801B02281FD820688007F7D467
:103950002878000722D5724E744869696C3671B1B7
:1039600001210160FFF776FC074604E0FFF772FCD7
:10397000C01B022809D830688007F7D50EE0C0F8D0
:103980000090FFF767FC074605E083E0FFF762FC65
:10399000C01B02287ED830688007F7D428784007FB
:1039A00068D5DFF87CA100270AF1380ADAF80000B0
:1039B000C0000BD4DAF8001041F08051CAF80010B2
:1039C000DAF80000012700F080500090584E30686F
:1039D000C00510D4306840F480703060FFF73AFCC6
:1039E000009005E0FFF736FC0099401A022851D8F4
:1039F0003068C005F6D54A4EA868683601280FD051
:103A00000528306810D020F001003060306820F0C8
:103A100004003060A868B8B1FFF71CFC00900FE00C
:103A2000306840F00100F4E740F004003060F7E750
:103A3000FFF710FC0099411A41F28830814264D8A6
:103A400030688007F4D50EE0FFF704FC009007E033
:103A5000FFF700FC0099411A41F28830814254D8A6
:103A600030688007F4D42FB1DAF8001021F08051CB
:103A7000CAF80010A869C0B3DBF80010C1F38101D7
:103A800002294AD00228484607D0C8F86000FFF74C
:103A9000E1FB00E039E005463AE04746C8F860003F
:103AA000FFF7D8FB064604E0FFF7D4FB801B022893
:103AB0002BD820688001F7D4D5E907010843A96A0B
:103AC0001C4A490802EB01416A6A41EA8211084333
:103AD00095F82C1040EA01611148001F0160012097
:103AE0003866FFF7B7FB054605E014E0FFF7B2FBC9
:103AF000401B022809D820688001F7D50BE000BFE1
:103B0000FFF7A8FB401B022802D90320BDE8F88F6D
:103B100020688001F4D40020F8E70120F6E70000D7
:103B2000083802400038024000004742800E4742F9
:103B3000007000400000FFFF90F85100704770B522
:103B4000040004D094F85100002510B106E00120D3
:103B500070BD84F85050204600F038F8022084F8F8
:103B600051002068016821F040010160D4E90101A1
:103B70000843D4E903121143084361690843218BC8
:103B800001F400710843E1690843216A0843A16A0E
:103B9000084321680860A069042101EA1040616AB5
:103BA000084321684860A06AB0F5005F02D121682F
:103BB000E06A08612068C16921F40061C16165653E
:103BC000012084F85100002070BD0000F0B587B0DE
:103BD000044614216846FCF79BFB1F4F2368002214
:103BE0001E490224032505261D48BB4213D11B4B49
:103BF00014331F6847F480571F601B6803F4805319
:103C000005930B6843F002030B60096801F00201A1
:103C10000591382116E0134FBB421BD10F4B1033D7
:103C20001F6847F480471F601B6803F480430593B7
:103C30000B6843F002030B60096801F00201059173
:103C40004FF46041CDE9001402AB694683E864009B
:103C5000FFF722FA07B0F0BD0030014030380240D3
:103C600000040240003800402DE9F84F044690F867
:103C700050000026994617460D4601280DD04FF0FA
:103C8000010B84F850B0FFF7E5FA804694F8510034
:103C9000B246012804D00226ADE00220BDE8F88F2C
:103CA000002D72D0002F70D0032084F85100C4F88A
:103CB00054A02563A786E786C4F838A0A4F83CA0E2
:103CC000A4F83EA0C4F844A0C4F840A0A068B0F591
:103CD000004F04D12068016841F480410160A06A6E
:103CE0004FF40057B8420AD1206802684DF6FF71C0
:103CF0000A4002602068016841F4005101602068B8
:103D00000168490603D4016841F040010160E068A0
:103D1000B0F5006F606804D038B3E08E012824D07D
:103D200040E010B1E08E01281BD1216835F8020B6C
:103D3000C86006E020688168890706D535F8021B4F
:103D4000C160E08E401EE0860BE0B9F1000F35D077
:103D5000B9F1FF3F05D0FFF77DFAA0EB0801494517
:103D60002CD2E08E0028E5D11FE0216815F8010B68
:103D7000087306E020688168890707D515F8011BDC
:103D80000173E08E401EE0860CE033E0B9F1000FD5
:103D900014D0B9F1FF3F05D0FFF75CFAA0EB0801A2
:103DA00049450BD2E08E0028E4D14B460122022186
:103DB0002046CDF8008001F0D9FC08B103261AE0B6
:103DC00042464946204601F0C1FC18B10126202098
:103DD000606510E0A06818B92068C168806800902C
:103DE000A06AB84204D12068016841F480510160A2
:103DF000606D00B1012684F851B084F850A03046BF
:103E00004CE700002DE9F84F044600200A9F9A462F
:103E100093460D46ADF80000064694F850004FF06A
:103E2000010901280ED0012084F85000FFF712FA92
:103E3000804694F85100616801280CD0B1F5827F6A
:103E400007D102E00220BDE8F88FA16809B9042873
:103E500001D0022605E155B1BBF1000F07D0BAF140
:103E6000000F04D094F85100012802D004E001268C
:103E7000F7E0052084F8510000206065C4F838B0F0
:103E8000A4F83EA0A4F83CA02563A4F836A0A4F8AA
:103E900034A020646064A06A4FF4005A50450AD1EF
:103EA000206801684DF6FF721140016020680168CA
:103EB00041F40051016020680168490603D401689B
:103EC00041F040010160E068B0F5006F606804D027
:103ED000F0B3E08E012847D07FE010B1E08E0128DA
:103EE0003BD1216835F8020BC860E08E401EE086A9
:103EF00033E000BFB9F1000F17D0E08EA8B1206801
:103F00008168890711D535F8021BC160E08E401E1B
:103F1000E086E08E4FF0000938B9A06A504504D120
:103F20002068016841F480510160E08F58B1206839
:103F30008168C90707D0C0682BF8020BE08F401ECC
:103F4000E0874FF00109781C07D0FFF783F900E004
:103F50000AE0A0EB0800B84271D2E08E0028C9D177
:103F6000E08F0028C6D13EE0216815F8010B0873E8
:103F7000E08E401EE08630E0B9F1000F17D0E08EF1
:103F8000A8B120688168890711D515F8011B017354
:103F9000E08E401EE086E08E4FF0000938B9A06A3E
:103FA000504504D12068016841F480510160E08FE0
:103FB00058B120688168C90707D0C0680BF8010BA9
:103FC000E08F401EE0874FF00109781C05D0FFF715
:103FD00041F9A0EB0800B84231D2E08E0028CBD1E5
:103FE000E08F0028C8D1A06A504513D101223B467A
:103FF00011462046CDF8008001F0B8FB20B1606D7D
:1040000040F0020060651AE02068C068ADF800006A
:10401000BDF8000020688168C90607D5616D41F0D0
:10402000020161654FF6EF71816001263B46012276
:1040300002212046CDF8008001F098FB08B103264C
:104040000FE042463946204601F080FB18B10126B8
:104050002020606505E0A06818B92068C168806804
:104060000090012084F85100002084F85000304670
:10407000E9E610B5401EB0F1807F01D3012010BDEC
:104080004FF0E02460610F21601701F053F9002028
:10409000A06107202061002010BD7047704730B537
:1040A00090F83820012A20D0012280F838200223FD
:1040B00080F8393003685C6824F070045C60036841
:1040C0005C680D682C435C6003689C6824F0800485
:1040D0009C6003689C6849680C439C6080F83920A8
:1040E000002180F83810084630BD022030BD10B5E0
:1040F000040003D094F8390010B107E0012010BD8E
:10410000002084F83800204600F00CF8022084F8E3
:104110003900211D206801F077FD012084F8390065
:10412000002010BD08B501681148B1F1804F0BD0D7
:10413000104A914210D1016841F00201016000680B
:1041400000F00200009008BD016841F0010101602B
:10415000006800F00100F5E7074A9142F3D10168D9
:1041600041F004010160006800F00400EAE700008B
:104170004038024000040040000800400168CA685E
:1041800042F00102CA600068016841F0010101606B
:104190000020704770B5044690F83800012817D009
:1041A000012584F83850022084F83900206882689C
:1041B00022F0770222F47F4282600868502837D0CC
:1041C0000DDC202859D005DC88B3102841D151E0FE
:1041D000022070BD302853D040283AD13FE06028FB
:1041E0002ED070280BD0B0F5805F03D0B0F5005F03
:1041F0002FD110E02068816821F0070115E0CB681D
:10420000D1E90121206801F05FFD2168886840F054
:10421000770088601DE0CB68D1E90121206801F0BA
:1042200053FD2068816841F48041816011E01EE007
:10423000CA684968206801F059FD5021206806E0ED
:10424000CA684968206801F062FD6021206801F0B9
:1042500045FD84F83950002084F8380070BDCA68E4
:104260004968206801F042FD40212068EFE7002105
:104270002068ECE710212068E9E720212068E6E7C4
:1042800030212068E3E7704770B504460068016993
:104290004FF00005C943890715D4C168C943890790
:1042A00011D4E91E01610120207620688069800711
:1042B000204602D0FFF7E7FF04E000F098F8204620
:1042C00000F096F8257620680169C943490717D49C
:1042D000C168C943490713D46FF00401016102208A
:1042E00020762068806910F4407F204602D0FFF7D6
:1042F000CAFF04E000F07BF8204600F079F825764C
:1043000020680169C943090716D4C168C943090770
:1043100012D46FF008010161042020762068C06982
:104320008007204602D0FFF7AEFF04E000F05FF800
:10433000204600F05DF8257620680169C943C9066A
:1043400017D4C168C943C90613D46FF010010161C5
:10435000082020762068C06910F4407F204602D0F3
:10436000FFF791FF04E000F042F8204600F040F82B
:10437000257620680169C943C90708D1C168C943C6
:10438000C90704D1891E0161204600F033F8206876
:104390000169C943090609D4C168C943090605D49E
:1043A0006FF0800101612046FFF777FE2068016908
:1043B000C943490609D4C168C943490605D46FF009
:1043C00040010161204600F05DF820680169C943A1
:1043D00089060BD4C168C943890607D46FF0200150
:1043E00001612046BDE87040FFF758BE70BD7047C0
:1043F0007047000070B50068B0F1804F20D01A49B6
:104400000025884224D1194CA078C82801D8401C26
:10441000A070E078C82801D8401CE0701448A1784A
:104420000088C0F10A0000EB8000884207DA61686A
:10443000002904D001220F4800F074FA656070BDB5
:104440000D480188B1F57A7FF9D8491C018070BD0B
:104450000A498842FBD10A484FF6FF72018891420F
:10446000F3D3058070BD0000000400400000002070
:104470001C020020280200209001002000080040BB
:10448000780100207047704770B5026804461068D4
:10449000D168536910F00F0F51D003F0010501F4FA
:1044A000907635435DD0C20705D0CA0503D5E26BCF
:1044B00042F00102E263420705D5DA0703D0E26B5E
:1044C00042F00202E263820705D5DA0703D0E26B0D
:1044D00042F00402E263020705D5DA0703D0E26B7B
:1044E00042F00802E263E26B002A34D0800604D571
:1044F000880602D5204601F036FC20684069E16B51
:10450000C0F3801001F008010143204624D001F0DF
:104510001CFC2068416949061AD5416921F0400117
:104520004161606BA0B11B490165606BFEF75EF9EC
:10453000002810D0606B016DBDE87040084783060D
:104540000FD58B060DD52046BDE8704001F00BBCA1
:104550002046FFF798FF70BDFFF795FF0020E0634E
:1045600070BD030606D50B0604D52046BDE8704095
:1045700001F096BD4006F3D54806F1D5D168204636
:1045800021F04001D160202184F8391000F045F974
:1045900070BD00003B5D000870B5040004D094F8C5
:1045A0003900002510B106E0012070BD84F83850B4
:1045B000204600F023F8242084F839002068C168E0
:1045C00021F40051C160204601F014FC206801690B
:1045D00021F4904101612068416921F02A01416183
:1045E0002068C16841F40051C160E563202084F86F
:1045F000390084F83A00002070BD000070B586B024
:10460000044614216846FBF783FE204E21682048AB
:104610000222012303240725B14217D11C4914317A
:104620000E6846F010060E60096801F01001059151
:10463000016841F0010101600068694600F0010075
:10464000059060028DE83D0012481AE0124EB1421A
:1046500019D10F4910310E6846F480260E600968A2
:1046600001F480210591016841F0020101600068B8
:10467000694600F0020005904FF440608DE83D006F
:104680000648FEF709FD06B070BD000000100140AD
:104690003038024000000240004800400004024060
:1046A00090F83A30202B1DD1D1B1CAB190F83830F2
:1046B000012B17D081628285C2850021C16322222D
:1046C00080F83A2080F8381001684A6942F0010207
:1046D0004A610068C16841F49071C1600020704770
:1046E00001207047022070470168C868800627D4FF
:1046F000144B00221448994210D18270134B416828
:1047000002785A544FF4B472491CB1FBF2F302FB25
:1047100013114160014601220D480FE00D4B9942F3
:104720000ED1C2700C4B81684278C8295A5401D20C
:10473000491C816004490122491C0848FFF7B0BFA9
:1047400070470000001001400000002028020020F7
:1047500028370020004800409003002068370020E0
:104760002DE9F843044690F839001F4616460D46D9
:10477000202850D1A5B19EB194F8380001284AD024
:10478000012084F838004FF00008C4F83C80212054
:1047900084F83900FEF75EFDA6848146E68426E0B3
:1047A0000120BDE8F883E08C401EE084A0684B4601
:1047B000B0F5805F4FF000024FF080012046009777
:1047C00003D001F09EFCE8B90DE001F09AFCC8B9F5
:1047D00028882168C0F308004860206908B16D1C72
:1047E00005E0AD1C03E0216815F8010B4860E08C82
:1047F0000028D8D14B46002240212046009701F0E6
:1048000080FC08B10320CCE7202084F8390084F82C
:1048100038800020C5E70220C3E77047FEE70000AC
:1048200070B5294953EC112B2DED088B01EBC00518
:1048300001F5805101EBC004B0EE40BAF0EE60BA71
:1048400094ED000BB0EE42AAF0EE62AA95ED009B4B
:1048500051EC100BFBF774FD41EC180B53EC1A2BC9
:10486000FBF76EFD41EC100B51EC180B53EC102BC9
:10487000FBF77FFE41EC1A0B53EC192B51EC1B0B91
:10488000FBF7FFFD53EC1A2BFBF701FE53EC192B42
:10489000FBF756FD9FED0D0B41EC190B53EC1A2B5A
:1048A00051EC100BFBF7EDFD53EC182BFBF7EFFD74
:1048B000C4E9000185ED009BB0EE490AF0EE690AFB
:1048C000BDEC088B70BD000008AE012000000000A8
:1048D0000000F03F70B50C462DED048BFBF7B8FEE1
:1048E0009FED0D9B53EC192BFBF7D1FD0C4D41ECCB
:1048F000180B35F91400FBF7ABFE53EC192BFBF743
:10490000C6FD53EC182BFBF71BFDFBF7D3FE25F878
:104910001400BDEC048B70BD000000000000E03FFF
:1049200008CE012070B5044634480D460260881E4A
:10493000C1B22046FCF7CEF8314A21781288914264
:104940005BD1611911F8022CB2EB102F55D111F87F
:10495000011CC0B2814250D100F0C2F86078032837
:1049600005D0284B062810D0102842D11EE0E07850
:10497000A178227900EB0120617901EB0221421834
:10498000642A36D800F040F833E0E078A178227944
:1049900000EB01216079642900EB022029D823F87B
:1049A00011002946204600F063F81CE0E078A17869
:1049B00000EB01226079217900EB01215018642875
:1049C00017D800200AE000BF04EB40052E7AED79ED
:1049D00006EB05251618401C23F816508842F3D321
:1049E000104600F05BF800F0F3F8BDE87040FDF70A
:1049F000FFBBBDE8704000F0EBB870BD6C0100205B
:104A00001E02002040AD0120F0B50B46164999B0BA
:104A1000032409788DF8001003218DF80110590046
:104A20008DF802106D460021104F0BE0421837F848
:104A30001260320A2A55641CE2B2AE54521C491C60
:104A4000D4B2C9B29942F1D321462846FCF742F8C4
:104A5000010A2955641CE1B26854491CC9B2684670
:104A600000F006F819B0F0BD1E02002040AD012094
:104A700070B5094C06460D462068012802D1304623
:104A800001F0BCFC2068032805D129463046BDE86A
:104A9000704001F0BDBC70BD6C0100201CB50F4A18
:104AA00012788DF8002010228DF80120020A8DF86E
:104AB00002208DF80300080A8DF804008DF8051017
:104AC00006216846FCF706F8010A8DF806108DF8F5
:104AD000070008216846FFF7CBFF1CBD1E0200201F
:104AE00070B52C482C49314A008808802B48008832
:104AF00048802B48008888802A480088C8802A4837
:104B000000880881002000BF32F8103001EB40041B
:104B1000401C80B263810328F6D3254C002200207C
:104B200004EBC20300EB820633F8105001EB46069B
:104B3000401C80B235820428F4D3521C92B2062A5B
:104B4000EDD31C48214A0088A1F840001A4800888B
:104B5000A1F8420019480088A1F8440018480088CC
:104B6000A1F8460017480088A1F8480016480088B8
:104B7000A1F84A00002000BF32F8103001EB4004D9
:104B8000401C80B2A4F84C300728F5D30A20A1F8C5
:104B9000620070BD1C02002040AD01201E020020FA
:104BA0007C0100207E01002080010020A401002063
:104BB00098DD012082010020840100208601002070
:104BC000880100208A0100208C010020C8DD01201E
:104BD00030B52C4A1088092801D82B490880508804
:104BE000FF2801D8294908809088012801D8284940
:104BF0000880D088032801D826490880108906211A
:104C0000B1EB102F04D3C1B2F72901D82249088093
:104C10002249002002EB40035B8921F81030401C40
:104C200080B20328F6D3002108461D4B0AE000207D
:104C300008E038B100EB810502EB45052D8A24F828
:104C400010500AE000EB810402EB4404248A012C9A
:104C500001D823F8314003EBC104401C80B2042882
:104C6000E7D3491C89B20629E1D3B2F840000428F1
:104C700001D80C490880B2F84200F72801D80A4947
:104C8000088030BD40AD01201C0200201E02002023
:104C90007C0100207E01002080010020A401002072
:104CA00098DD0120820100208401002070B5244C91
:104CB0009AB06D4624781E9E8DF8004003248DF82E
:104CC000014018248DF80240040A8DF804001D48A4
:104CD0008DF8034000888DF80810040A8DF805400F
:104CE0008DF80600080A8DF80700100A8DF80900F3
:104CF0008DF80A20180A8DF80B000D248DF80C3061
:104D00005FF0000036F81010090A2955641CE1B262
:104D100016F810206A54491C401CCCB20728F1D365
:104D200021462846FBF7D6FE010A2955641CE1B24C
:104D30006854491CC9B26846FFF79AFE1AB070BDA4
:104D40001E0200208601002010B58AB014220B49F3
:104D50006846FBF7C4FA0021684606F007FD084CD8
:104D6000064914222060143105A8FBF7B8FA002187
:104D700005A806F0FBFC60600AB010BD78160108BB
:104D80000C0000202DE9F04786B014216846FBF79F
:104D9000BFFA5E480024016841F01001016001681B
:104DA00001F010010591016841F0200101600168E6
:104DB00001F020010591016841F080010160016866
:104DC00001F080010591016841F004010160016872
:104DD00001F004010591016841F0010101600168E1
:104DE00001F001010591016841F0020101600168D3
:104DF00001F002010591016841F0080101600168BC
:104E000001F008010591016841F04001016000686E
:104E10003F4E00F040004FF4C06505900022294647
:104E20003046FEF711FADFF8ECA001224FF4825170
:104E30005046FEF709FA384F00224FF41061384609
:104E4000FEF702FA01224FF481613846FEF7FCF9C1
:104E5000DFF8C890012280214846FEF7F5F91C20B2
:104E6000CDE90004DFF8B880694640460294FEF7B9
:104E700013F900950125CDE90154694630460394A4
:104E8000FEF70AF9274EE803CDE9000669460294C9
:104E90004046FEF701F92803CDE900050220CDE9DF
:104EA000024069465046FEF7F7F8280200901120AC
:104EB000CDE90104694638460394FEF7EDF840F663
:104EC00008400090CDE90154694638460394FEF746
:104ED000E3F803208027CDE90240CDE9007569465B
:104EE0004846FEF7D9F840200090CDE901546946C4
:104EF00050460394FEF7D0F80097CDE90164694667
:104F00005046FEF7C9F806B0BDE8F08730380240D9
:104F10000014024000040240000C0240001802404D
:104F200000100240000011100D4810B50B4901603F
:104F30000C49416000214FF480428160C0E90312B6
:104F400041618161C1610162FEF78AF9002803D0E5
:104F5000BDE81040FCF780BF10BD000000540040C9
:104F600058040020A08601000EB5002108460BF071
:104F7000A7F92E490868C97803BA0A0603F47F43E3
:104F800042EA032203BA00BA0843284903F47F0324
:104F900042EA13220C3942EA1060086010310868B6
:104FA000C97803BA0A0603F47F4342EA032203BA2C
:104FB00000BA08431D4903F47F0342EA132208396B
:104FC00042EA1060086010310868C97803BA0A061E
:104FD00003F47F4342EA032203BA03F47F0300BAD7
:104FE00042EA13220843114942EA1060091F104A9D
:104FF0000860104900208DE807000C4B0E481B1F6D
:105000001A1F111F06F056F90B4806F0F5F90A4869
:1050100090F82B004007084803D5BDE80E4006F085
:1050200027BABDE80E4006F0EDB9000020000020D0
:10503000910401086D930008AC04002010B5002213
:1050400005211C20FEF730FA1C20FEF721FA002271
:1050500005211D20FEF728FA1D20FEF719FA00226F
:1050600005211E20FEF720FA1E20FEF711FA00226D
:1050700005212520FEF718FA2520FEF709FA00225F
:1050800005212720FEF710FA2720FEF701FA00225B
:1050900005213D20FEF708FABDE810403D20FEF74F
:1050A000F7B90000104810B50E4901604FF4827145
:1050B000416000218160C1604FF400720161C0E96C
:1050C00005121822C0E90721416281620A21C162EA
:1050D000FEF735FD002803D0BDE81040FCF7BCBE4C
:1050E00010BD000000300140C4350020114810B54B
:1050F0000F4901604FF48271416000218160C160FD
:105100004FF400720161C0E905121822C0E90721BD
:1051100041624FF4005181620721C162FEF70FFD29
:10512000002803D0BDE81040FCF796BE10BD00007B
:10513000003800401C36002010B586B00024164808
:10514000009401940294039404944FF080410594D8
:10515000016042F2CF01C0E901140121C0E903144A
:10516000FEF7C5FF08B1FCF777FE4FF480500090C2
:1051700069460948FFF70EF808B1FCF76DFE049484
:1051800004A905480594FEF78AFF002801D0FCF722
:1051900063FE06B010BD00007436002010B586B066
:1051A0000024164800940194029403940494124934
:1051B0000594016042F2CF01C0E901140121C0E968
:1051C0000314FEF794FF08B1FCF746FE4FF480503D
:1051D000009069460948FEF7DDFF08B1FCF73CFE88
:1051E000049404A905480594FEF759FF002801D04E
:1051F000FCF732FE06B010BD00040040B0360020BF
:1052000010B586B0002416480094019402940394CB
:10521000049412490594016042F2CF01C0E90114DF
:105220000121C0E90314FEF762FF08B1FCF714FE88
:105230004FF48050009069460948FEF7ABFF08B173
:10524000FCF70AFE049404A905480594FEF727FF1D
:10525000002801D0FCF700FE06B010BD0008004099
:10526000EC3600200E4810B50C490F4A01600D497C
:10527000128851F822104160002181600C22C16027
:10528000C0E904128161C161FFF786F9002803D0EB
:10529000BDE81040FCF7E0BD10BD0000001001406B
:1052A00028370020F40100201C0200200E4810B511
:1052B0000C490F4A01600D49128851F822104160D3
:1052C000002181600C22C160C0E904128161C161CA
:1052D000FFF762F9002803D0BDE81040FCF7BCBD21
:1052E00010BD00000048004068370020F401002095
:1052F0001C0200200D4810B54FF0A04101600421B0
:10530000416002220021C0E90321C0E90512C16108
:1053100001624162C1620163FEF7F8F8002803D020
:10532000BDE81040FCF798BD10BD0000A837002074
:10533000FEE770470907090E002806DA00F00F00A3
:1053400000F1E02080F8141D704700F1E02080F8A3
:10535000001470472DE9F04F4FF0000B2DED108B2E
:1053600087B036AD5E46DDE93C74DDF8D0C095EC23
:10537000068B2AAD95EC0ABBEE4D05F1900885EC45
:10538000100B9DED200B85ED100B9DED220B85ED97
:10539000120B9DED240B85ED140B9DED260B85ED79
:1053A000160B9DED280B85ED180B683588EC068BE8
:1053B00085EC0ABB0125ADF80850ADF80C10ADF82E
:1053C0001030ADF80A00ADF80E20ADF812C0ADF8FF
:1053D00014709FEDD9AB02A830F8160001287CD1DB
:1053E000701C85B24DE102A830F81500012875D176
:1053F000681C87B240E102A830F8170001286ED17E
:1054000000200090DFF82C8305EB450008EBC00A74
:1054100006EB460008EBC0099AED021B99ED020B62
:1054200053EC112B51EC100BFBF72BF8B0EE4A9A12
:10543000F0EE6A9A41EC100BB0EE491AF0EE691AE0
:1054400001F022F8B0EE408AF0EE608A9AED001B7F
:1054500099ED000B53EC112B51EC100BFBF711F8ED
:1054600041EC100BB0EE491AF0EE691A01F00CF89D
:10547000B0EE401AF0EE601A53EC182B51EC110B01
:10548000FAF75EFF41EC100B01F01AFEB0EE408A15
:10549000F0EE608A9AED040B51EC180B53EC102BD4
:1054A000FAF74EFF99ED041B53EC112BFBF772F941
:1054B00010D299ED040B51EC180B53EC102BFAF7AA
:1054C0003FFF9AED041B53EC112BFBF763F901D25C
:1054D0000120009007EB470102E0D5E0CFE0C9E0F2
:1054E00008EBC10899ED020B98ED021B51EC100B73
:1054F00053EC112BFAF7C5FF41EC100BB0EE491A33
:10550000F0EE691A00F0C0FFB0EE408AF0EE608A5B
:1055100098ED001B99ED000B53EC112B51EC100B87
:10552000FAF7AFFF41EC100BB0EE491AF0EE691A32
:1055300000F0AAFFB0EE401AF0EE601A53EC182B00
:1055400051EC110BFAF7FCFE41EC100B01F0B8FD29
:10555000B0EE408AF0EE608A98ED040B51EC180B27
:1055600053EC102BFAF7ECFE99ED041B53EC112BC6
:10557000FBF710F911D299ED040B51EC180B53EC19
:10558000102BFAF7DDFE98ED041B53EC112BFBF703
:1055900001F902D20098401C009098ED020B9AEDA0
:1055A000021B53EC102B51EC110BFAF76AFF41EC84
:1055B000100BB0EE491AF0EE691A00F065FFB0EE7C
:1055C000408AF0EE608A98ED002B9AED000B53ECC8
:1055D000122B51EC100BFAF754FF41EC100BB0EE0C
:1055E000491AF0EE691A00F04FFF53EC182B51ECFA
:1055F000100BFAF7A5FE41EC100B01F061FDB0EEC7
:10560000408AF0EE608A98ED040B51EC180B53ECD5
:10561000102BFAF795FE9AED040B53EC102BFBF7C9
:10562000B9F811D29AED040B51EC180B53EC102B76
:10563000FAF786FE98ED040B53EC102BFBF7AAF853
:1056400002D20098401C00900098032812D198EDD7
:10565000040B3B488DED000B00EB0B109AEC063B66
:1056600099EC060B98EC046BFDF706F80BF10100C2
:1056700000F0FF0B7F1CBFB2072FFFF4BCAE6D1C08
:10568000ADB2062DFFF4AFAE761CB6B2052EFFF418
:10569000A2AEBBF1000F08D000259FED2A0B284FCA
:1056A00084ED000B84ED020B22E0012007B0BDEC7D
:1056B000108BBDE8F08F00BF07EB051694ED000BD3
:1056C00096ED001B51EC100B53EC112BFAF738FE42
:1056D000C4E9000196ED020B94ED021B53EC102B74
:1056E00051EC110BFAF72CFE6D1CEDB2C4E902016E
:1056F00058465D45E0D3FAF7BCFF0E4646EC100B6A
:1057000094ED001B054653EC102B51EC110BFAF7EE
:1057100030FFC4E9000146EC105B94ED021B53EC32
:10572000102B51EC110BFAF724FFC4E90201002001
:10573000BCE7000098AC0120000000000000004021
:1057400068AA0120000000000000000038B50B46E8
:10575000009204460022802100F008F8002804D0BE
:10576000606D40F020006065032038BD2DE9F041F8
:105770001D4617460E460446DDF8188035E0681CC5
:1057800033D02DB1FDF766FDA0EB0800A8422CD365
:105790002068416821F0E00141606068B0F5827FD7
:1057A0000BD1A068B0F5004F02D0B0F5806F04D1E6
:1057B0002068016821F040010160A06AB0F5005F37
:1057C0000AD1206801684DF6FF721140016020681F
:1057D000016841F400510160012084F8510000206B
:1057E00084F850000320BDE8F0812068806836EA24
:1057F000000004D00020B842C1D10020F3E701200E
:10580000F9E700001C49884201D2002070471B497B
:10581000884201D2012070471949884201D20220F2
:1058200070471849884201D20320704716498842C0
:1058300001D2042070471549884201D205207047E3
:105840001349884201D2062070471249884201D28A
:10585000072070471049884201D2082070470F493D
:10586000884201D2092070470D49884201D20A209E
:1058700070470B20704700000040000800800008BF
:1058800000C0000800000108000002080000040831
:10589000000006080000080800000A0800000C08C4
:1058A00000000E0810B5002303E010C841F82340A3
:1058B0005B1C9342F9D310BD2DE9F04186B000275F
:1058C00016460D4604460597B0F1006F21D3A00798
:1058D0001FD1FDF7CBFBDFF86880D8F8001021F46A
:1058E0000071C8F800101749204604EB86068C4268
:1058F0001BD20097FFF786FF029001200390022041
:10590000049005A96846FDF71DFB70B10EA000F0DC
:1059100089FD06B0BDE8F0810023214602202A68F7
:10592000FDF766FB18B9241D2D1DB442F4D3D8F839
:10593000001041F40071C8F80010FDF74FFBE8E7D4
:10594000003C02400000FF1F457261736520666CD9
:10595000617368204572726F720D0A00FFF704FBD5
:1059600001F0E4FFFCE710B5FDF734FDBDE81040A1
:1059700005F0F2BE30B593B030216846FAF7C8FCA6
:1059800014210CA8FAF7C4FC19480025016841F05D
:1059900080510160006800F0805011901548016846
:1059A00041F4804101600068022400F480401190BD
:1059B00001200090000401908001CDE90640042000
:1059C0000890A820CDE9090407200B906846FDF750
:1059D00025FF0CA90F2081E831004FF4A0500F9053
:1059E000E002109005210CA8FDF72AFE13B030BD8F
:1059F00040380240007000401048016841F47001D6
:105A000001600F48016841F0010101600C4A00216A
:105A10000832116002680B4B1A400260031D0A4AEB
:105A20001A60026822F48022026005480C3001608E
:105A300002495806803908607047000088ED00E090
:105A400000380240FFFFF6FE1030002410B512A00F
:105A500000F0E8FC1CA000F0E5FC27A000F0E2FC50
:105A600031A000F0DFFC0CA000F0DCFC3AA13FA06C
:105A700000F0D8FC41A145A000F0D4FC48A14AA008
:105A800000F0D0FC4CA24FA151A000F0CBFCBDE82F
:105A9000104001A000F0C6BC2B2D2D2D2D2D2D2D3D
:105AA0002D2D2D2D2D2D2D2D2D2D2D2D2D2D2D2D26
:105AB0002D2D2D2D2D2D2D2D2D2D2D2D2D2D2D2D16
:105AC0002D2D2D2B0D0A00007C20202020202020B1
:105AD0002020204672656552544F532B4C77495015
